:020000040800F2
:1000000058040020A10100087D100008D70F000847
:1000100079100008AD02000821130008000000005C
:100020000000000000000000000000008310000835
:10003000B1020008000000008110000885100008CF
:10004000BB010008BB010008BB010008BB010008A0
:10005000BB010008BB010008BB010008BB01000890
:10006000BB010008BB010008BB010008BB01000880
:10007000BB010008BB010008BB010008BB01000870
:10008000BB010008BB010008BB010008BB01000860
:10009000BB010008BB010008BB010008BB01000850
:1000A000BB010008BB010008BB010008BB01000840
:1000B000BB010008BB010008BB010008BB01000830
:1000C000BB010008BB010008BB010008BB01000820
:1000D000BB010008BB010008BB010008BB01000810
:1000E000BB010008BB010008BB010008BB01000800
:1000F000BB010008BB010008BB010008BB010008F0
:10010000BB010008BB010008BB010008BB010008DF
:10011000BB010008BB010008BB010008BB010008CF
:10012000BB010008BB010008BB010008BB010008BF
:10013000BB010008BB010008BB010008BB010008AF
:10014000BB010008BB010008BB010008BB0100089F
:10015000BB010008BB010008BB010008BB0100088F
:10016000BB010008BB010008BB010008BB0100087F
:10017000BB010008BB010008BB0100080000000033
:10018000BB010008BB010008DFF810D000F07CF8CC
:100190000048004781140008AFF300805804002095
:1001A0000648804706480047FEE7FEE7FEE7FEE711
:1001B000FEE7FEE7FEE7FEE7FEE7FEE74111000887
:1001C000890100082DE9F05F0546002092469B4614
:1001D00088460646814640241BE02846414647465D
:1001E000224600F041F853465A46C01A914110D3B6
:1001F00011461846224600F028F82D1A67EB010830
:100200004F4622460120002100F01FF817EB00099D
:100210004E41201EA4F10104DFDC484631462A4647
:100220004346BDE8F09FD2B201E000F8012B491E21
:10023000FBD270470022F6E710B513460A46044683
:100240001946FFF7F0FF204610BD202A04DB203AB4
:1002500000FA02F1002070479140C2F1200320FA19
:1002600003F3194390407047202A04DB203A21FA17
:1002700002F00021704721FA02F3D040C2F12002BF
:100280009140084319467047064C074D06E0E06868
:1002900040F0010394E8070098471034AC42F6D3CD
:1002A000FFF776FFF41400081415000800BFFEE7FE
:1002B000704772B600BFFEE7F8B502460B46002550
:1002C000002400200021D6E0012606FA01F51E6870
:1002D00006EA0504AC4274D11E7906F00306012E2D
:1002E00004D01E7906F00306022E13D190684F0049
:1002F0000326BE40B0434F00DE68BE4030439060EE
:10030000506801268E40B0431E79C6F300168E4019
:10031000304350601E7906F00306032E09D0D068E2
:100320004F000326BE40B0434F009E68BE4030439E
:10033000D0601E7906F00306022E13D1CF0802F119
:10034000200656F827004E07F70E0F26BE40B04392
:100350004F07FF0E1E69BE403043CF0802F1200652
:1003600046F8270010684F000326BE40B0431E79B0
:1003700006F003064F00BE40304310605E6806F48E
:100380004036002E76D000BF002600963C4E3668E0
:1003900046F480463A4F3E603E46366806F4804654
:1003A000009600BF00BF374E8F0856F827008E0713
:1003B000370F0F26BE40B043334EB24202D1002663
:1003C00024E057E0314EB24201D101261EE0304E0A
:1003D000B24201D1022619E02E4EB24201D10326CB
:1003E00014E02D4EB24201D104260FE02B4EB24252
:1003F00001D105260AE02A4EB24201D1062605E0C7
:10040000284EB24201D1072600E008268F073F0F91
:10041000BE4030431B4E8F0846F82700224E3068FE
:10042000A0435E6806F4801606B120431E4E30607D
:10043000361D3068A0435E6806F4001606B12043FE
:10044000194E361D3060184E361F3068A0435E6866
:1004500006F4003606B12043134E361F3060361FB7
:100460003068A0435E6806F4803606B120430E4E25
:10047000083E3060491C1029FFF426AFF8BD00008B
:1004800044380240083801400000024000040240A5
:1004900000080240000C024000100240001402401C
:1004A00000180240001C0240083C0140014800685E
:1004B00070470000040000200348006803490978E1
:1004C0000844014908607047040000200C00002027
:1004D00010B50D48006840F400700B4908600846EC
:1004E000006840F4806008600846006840F480704E
:1004F0000860032000F092F80F2000F007F800F0E9
:100500002BF8002010BD0000003C024070B50446EE
:100510000E4800784FF47A71B1FBF0F00C4909688D
:10052000B1FBF0F5284600F01BFC08B1012070BDBE
:10053000102C07D200222146501E00F031F8054849
:10054000046001E00120F2E70020F0E70C00002049
:10055000100000200800002008B500BF0020009017
:100560000E48006840F480400C4908600846006866
:1005700000F48040009000BF00BF00BF002000904A
:10058000081F006840F08050091F08600846006896
:1005900000F08050009000BF00BF08BD443802400A
:1005A0002DE9F05F80460D461646002700F0CAFE92
:1005B000074639462A46334601F00700C0F1070ACC
:1005C000BAF1040F02D94FF0040A01E0C0F1070AA2
:1005D000D14600F1040ABAF1070F02D24FF0000A27
:1005E00001E0A0F1030AD4464FF0010A0AFA09FA21
:1005F000AAF1010A0AEA020A0AFA0CFA4FF0010B00
:100600000BFA0CFBABF1010B0BEA030B4AEA0B04F0
:100610002146404600F09EFEBDE8F09F00BF00F07E
:100620000702064B19684FF6FF031940044B0B43B2
:1006300043EA0221014B196000BF70470CED00E056
:100640000000FA0570B504460D460CB9012070BDD6
:100650005848006800F00700A84209D255490D70BB
:100660000846006800F00700A84201D00120EEE72C
:10067000207800F0020002281DD1207800F004004C
:10068000042805D14C48006840F4E0504A4908600D
:10069000207800F00800082805D14748006840F499
:1006A0006040454908604448006820F0F000A168B7
:1006B000084341490860207800F00100A8B3606851
:1006C000012807D13C4808380068C0F34040B8B959
:1006D0000120BCE76068022802D06068032807D1C7
:1006E000354808380068C0F3406048B90120AEE7DB
:1006F000314808380068C0F3400008B90120A6E777
:100700002D48006820F00300616808432A4908600A
:10071000FFF7CCFE064609E0FFF7C8FE801B41F25A
:100720008831884202D9032091E707E02248006817
:1007300000F00C006168B0EB810FEDD11D4800683E
:1007400000F00700A84209D91A490D700846006850
:1007500000F00700A84201D0012078E7207800F0DF
:100760000400042807D11448006820F4E050E16830
:10077000084311490860207800F00800082808D1D3
:100780000D48006820F46040216940EAC1000A4930
:10079000086000F03FF808490968C1F30311074AEF
:1007A000515CC8400649086006480068FFF7AEFE85
:1007B00000204CE7003C024008380240DC140008EE
:1007C0001000002008000020014800687047000069
:1007D0001000002000B5FFF7F7FF04490968C1F3D6
:1007E0008221034A515CC84000BD00000838024025
:1007F000EC14000800B5FFF7E7FF04490968C1F3EE
:100800004231034A515CC84000BD00000838024034
:10081000EC1400082DE9F047002400250026A1462D
:100820002548006800F00C0020B1042805D00828F5
:100830003AD105E0DFF8849039E0DFF8849036E0C3
:100840001D48001F006800F03F041B48001F00689F
:1008500000F4800078B11A481749091F0968C1F3EC
:100860008811A0FB01700146224600233846FFF79D
:10087000A9FC05460EE011480F49091F0968C1F39C
:100880008811A0FB01700146224600233846FFF77D
:1008900099FC05460848001F0068C0F30140401C51
:1008A0004600B5FBF6F902E0DFF8109000BF00BF8C
:1008B0004846BDE8F0870000083802400024F400F4
:1008C00000127A00F8B504460CB90120F8BD207872
:1008D00000F00100002874D0F948006800F00C0016
:1008E00004280DD0F648006800F00C00082813D149
:1008F000F348001F006800F48000B0F5800F0BD1B2
:10090000EF4808380068C0F34040002859D06068BC
:10091000002856D10120D9E700BF6068B0F5803FBC
:1009200008D1E7480838006840F48030E4490839C5
:1009300008601EE06068B0F5A02F0DD1E0480838CF
:10094000006840F48020DE490839086008460068E5
:1009500040F4803008600CE0D9480838006820F482
:100960008030D749083908600846006820F48020A4
:10097000086000BF606890B1FFF798FD054606E08B
:10098000FFF794FD401B642801D903209EE7CC4863
:1009900008380068C0F340400028F1D011E0FFF7AC
:1009A00085FD054606E0FFF781FD401B642801D95F
:1009B00003208BE7C24808380068C0F34040002895
:1009C000F1D1207800F0020002285FD1BC48006815
:1009D00000F00C0058B1BA48006800F00C0008287C
:1009E0001CD1B748001F006800F48000B0B9B448BB
:1009F00008380068C0F3400020B1E068012801D049
:100A0000012063E7AE480838006820F0F80021694B
:100A100040EAC100AA490839086037E0E06800B33D
:100A20000120A8490860FFF741FD054606E0FFF7F1
:100A30003DFD401B022801D9032047E7A0480838A4
:100A40000068C0F340000028F1D09D4808380068D5
:100A500020F0F800216940EAC1009949083908608E
:100A600014E0002097490860FFF720FD054606E0E6
:100A7000FFF71CFD401B022801D9032026E7904800
:100A800008380068C0F340000028F1D1207800F059
:100A9000080008282CD16069A8B101208A490860A3
:100AA000FFF704FD054606E0FFF700FD401B0228A6
:100AB00001D903200AE782486C300068C0F3400087
:100AC0000028F1D014E000207F490860FFF7EEFC19
:100AD000054606E0FFF7EAFC401B022801D9032087
:100AE000F4E677486C300068C0F340000028F1D18C
:100AF000207800F00400042870D1002770483830B6
:100B0000006800F0805090B900BF002000906C4851
:100B10003830006840F08050694938310860084634
:100B2000006800F08050009000BF00BF01276748B8
:100B3000006800F48070B0B96448006840F48070C8
:100B400062490860FFF7B2FC054606E0FFF7AEFC1D
:100B5000401B022801D90320B8E65C48006800F475
:100B600080700028F2D000BFA068012808D1544846
:100B70006830006840F001005149683108601DE0AC
:100B8000A06805280DD14E486830006840F0040088
:100B90004B49683108600846006840F00100086071
:100BA0000CE047486830006820F001004449683193
:100BB00008600846006820F00400086000BFA068D4
:100BC000A8B1FFF773FC054609E0FFF76FFC401B77
:100BD00041F28831884202D9032077E626E038487E
:100BE00068300068C0F340000028EED013E0FFF743
:100BF0005DFC054608E0FFF759FC401B41F28831D7
:100C0000884201D9032061E62D4868300068C0F3AE
:100C100040000028EFD1012F07D129483830006863
:100C200020F0805026493831086000BFA0690028B4
:100C300045D02348006800F00C0008285DD0A0696A
:100C4000022845D100201F490866FFF72FFC054602
:100C500006E0FFF72BFC401B022801D9032035E6F4
:100C6000174808380068C0F340600028F1D1D4E983
:100C700007010843616A40EA81110122A06AC2EBC0
:100C8000500041EA00412C20005D41EA00600C491F
:100C9000091F086001200B490866FFF707FC05469D
:100CA00006E0FFF703FC401B022801D903200DE6F4
:100CB000034808380068C0F340600028F1D049E0DC
:100CC0000838024000004742800E47420070004052
:100CD000002021490866FFF7E9FB054606E0FFF71B
:100CE000E5FB401B022801D90320EFE51B48006803
:100CF000C0F340600028F2D12CE0A069012800D1A7
:100D0000E4E51648001D0668A069012820D006F415
:100D10008001E06981421BD106F03F01206A8142D7
:100D200016D147F6C0703040616AB0EB811F0FD119
:100D300006F440310122A06AC2EB5000B1EB004F33
:100D400006D106F070612C20005DB1EB006F01D080
:100D50000120BBE50020B9E5000047420038024011
:100D600070B504462546681EB0F1807F01D301208E
:100D70000FE0681E4FF0E02148610F214FF0FF3077
:100D800000F0E8FA00204FF0E021886107200861B8
:100D9000002070BD70B5040004D094F83D0000251B
:100DA00010B106E0012070BD84F83C50204600F0F0
:100DB00023F8242084F83D002068C16821F4005104
:100DC000C160204600F0C6F92068016921F4904115
:100DD00001612068416921F02A0141612068C168F0
:100DE00041F40051C1602564202084F83D0084F85E
:100DF0003E00002070BD000010B586B004461421EE
:100E00006846FFF717FA14492068884221D1134831
:100E10000021026842F010020260006800F0100039
:100E200005900E481438026842F001020260006822
:100E300000F0010005904FF4C06000900220CDE961
:100E40000101032003900720049069460448FFF73E
:100E500033FA06B010BD00000010014044380240D3
:100E6000000002402DE9F84F044690F83E009A46F3
:100E700016460D46202853D1FDB1F6B194F83C003A
:100E800001284DD0012084F83C000027276422204F
:100E900084F83E002763FFF709FBA6858146E685B7
:100EA000A0684FF48058404501D1206940B12E46DA
:100EB0005FF0000584F83C7027E00120BDE8F88F62
:100EC0000026F7E74B46002220212046CDF800A05F
:100ED00000F0C6F908B10320F0E726B1A06840454C
:100EE0001BD038B108E020684068C0F3080025F83E
:100EF000020B07E0206980B12068406800F07F00A5
:100F000006F8010BE08D401EE085E08D0028D9D168
:100F1000202084F83E000020D0E720684068EFE7FA
:100F20000220CBE72DE9F843044690F83D001F4628
:100F300016460D4620284CD1C5B1BEB194F83C00F0
:100F4000012846D0012084F83C004FF00008C4F886
:100F50004080212084F83D00FFF7A8FAA68481464E
:100F6000E684A068B0F5805F03D004E00120BDE80E
:100F7000F883206928B12E465FF0000584F83C8094
:100F80000EE00026FAE78021204600F069F9A0B9BA
:100F9000AEB116F8010B21684860E08C401EE08479
:100FA000E08C4B464FF0000200970028EBD14FF049
:100FB0004001204600F054F930B10320D7E735F85E
:100FC000020BC0F30800E6E7202084F83D00002073
:100FD000CDE70220CBE700BFFEE7000008B500BF69
:100FE000002000901548006840F004001349086094
:100FF0000846006800F00400009000BF00BF00BF7A
:10100000002000900846006840F080000860084614
:10101000006800F08000009000BF00BF00BF00200B
:1010200000900846006840F001000860084600682B
:1010300000F00100009000BF00BF08BD3038024042
:101040000C4810B50A4901604FF4E13141600021BC
:1010500081600C22C160C0E904128161C161FFF7A7
:1010600099FE002803D0BDE81040FFF722B910BD5B
:10107000001001401400002000BFFEE700BFFEE7A3
:101080007047704710B5FFF717FA10BD00B593B061
:10109000302107A8FFF7CEF8142102A8FFF7CAF8FD
:1010A00000BF002001902448006840F08050224991
:1010B00008600846006800F08050019000BF00BF43
:1010C00000BF002001901D48006840F480401B498B
:1010D00008600846006800F48040019000BF00BF2F
:1010E000012007900004089002200D9041050E9108
:1010F00004210F91A8211091022111910421129134
:1011000007A8FFF7DFFB08B1FFF7D3F80F20029025
:1011100002200390002004904FF4A05005904FF45B
:1011200080500690052102A8FFF78CFA08B1FFF75E
:10113000C0F813B000BD000040380240007000400D
:101140000348006840F470000149086070470000DF
:1011500088ED00E070B5044600680169E26821F49A
:101160004051114301612169A068E2690843616946
:10117000114308432168CA6849F20C639A43024349
:10118000CA6020684169A26921F44071114341613C
:1011900031492068884202D03049884202D1FFF7A5
:1011A00029FB01E0FFF716FBE26900231921642502
:1011B0003226B2F5004F626828D0A0FB0101930FE0
:1011C0009200FEF7FFFF0146B0FBF5F06FF018024A
:1011D000504301EB800006EB0010B0FBF5F000F08F
:1011E000F002B1FBF5F002EB0012B1FBF5F06FF08D
:1011F0001803584301EB800006EB0010B0FBF5F03C
:1012000000F00F0021681044886070BDA0FB010150
:1012100092185B41FEF7D6FF0146B0FBF5F00201E4
:10122000B1FBF5F06FF01803584301EB800006EBBB
:10123000C000B0FBF5F000F0F80002EB4002B1FB9B
:10124000F5F0584301EB800006EBC000B0FBF5F071
:1012500000F00700D6E70000001001400014014034
:101260002DE9F041984617460E460446069D27E0B4
:10127000681C25D02DB1FFF719F9A0EB0800A84292
:101280001ED920680C3050E8001F21F4D07140E8CE
:101290000012002AF5D12068143050E8001F21F018
:1012A000010140E80012002AF5D1202084F83D0019
:1012B00084F83E00002084F83C000320BDE8F08163
:1012C0002068006836EA000004D00020B842CFD081
:1012D0000020F3E70120F9E770B505460C464FF012
:1012E000FF33224629460448FFF7BCFD08B92046D3
:1012F00070BD0020FCE700001400002070B505461A
:101300000C464FF0FF33224629460448FFF70AFEF9
:1013100008B9204670BD0020FCE700001400002042
:1013200000BFFEE70FB4054B10B503A9044A0298AD
:1013300000F033F810BC5DF814FB000071140008D5
:101340000000002002480068C0F30220704700003F
:101350000CED00E010B5002804DB0A07130E054A67
:10136000135406E00A07140E034A00F00F031B1F74
:10137000D45410BD00E400E018ED00E002E008C81D
:10138000121F08C1002AFAD170477047002001E0FF
:1013900001C1121F002AFBD170472DE9F84F994671
:1013A000924688460546002706E025280AD0514681
:1013B0004A4690476D1C7F1C28780028F5D1384696
:1013C000BDE8F88F002315F8011F18462E2915D106
:1013D00015F8011F04232A290DD06FF02F02297858
:1013E000A1F13004092C09D800EB800002EB400089
:1013F00008446D1CF3E758F8040B6D1C2A78002A8A
:10140000DDD0632A07D0732A0FD0104651464A46D2
:1014100090477F1C2AE018F8042B8DF8002000214B
:101420008DF801106E46012103E058F8046B4FF06F
:10143000FF315A074FF0000401D409E0641C8442D4
:101440000BDA8C42FADB325D002AF7D105E0641C2E
:101450008C42FCDB305D0028F9D1274404E016F80B
:10146000010B51464A469047641EF8D26D1CA3E713
:1014700013B50C4601216846FFF740FF00981CBDDC
:1014800008B5FFF725F8FFF701FEFFF7A7FDFFF707
:10149000D7FD412000909DF800100FA0FFF742FFFC
:1014A000612000909DF800100BA0FFF73BFF11E0BA
:1014B00001216846FFF710FF012801D0FEF7F9FE71
:1014C0009DF80000401CC0B200909DF8001002A0E2
:1014D000FFF728FFECE70000256300000000000094
:1014E00000000000010203040607080900000000D4
:1014F000010203041415000800000020140000007D
:101500007C13000828150008140000204404000083
:101510008C13000800000000000000001000000014
:08152000010000000024F400AA
:040000050800018965
:00000001FF
