:020000040800F2
:1000000050AA0020B9020008E92D0008852C00083C
:10001000E52D0008D10A00084D420008000000004C
:10002000000000000000000000000000713A00081D
:10003000FF0B000800000000C12E0008193B00085B
:10004000D3020008D3020008D3020008D30200083C
:10005000D3020008D3020008D3020008D30200082C
:10006000D3020008D3020008D3020008D30200081C
:10007000D3020008D3020008D3020008D30200080C
:10008000D3020008D3020008D3020008D3020008FC
:10009000D3020008D3020008D3020008D3020008EC
:1000A000D3020008D3020008D3020008D3020008DC
:1000B000D3020008D3020008D3020008D3020008CC
:1000C000D3020008D3020008D30200082D31000833
:1000D000D302000825420008D3020008D30200081A
:1000E000D3020008D3020008D3020008D30200089C
:1000F000D3020008D3020008D3020008D30200088C
:10010000D3020008D3020008D3020008D30200087B
:10011000D3020008D3020008D3020008D30200086B
:10012000D50A0008D3020008D3020008E50A000837
:10013000D3020008D3020008D3020008D30200084B
:10014000D3020008D3020008D3020008D30200083B
:10015000D3020008D3020008D3020008D30200082B
:10016000D3020008D3020008D3020008D30200081B
:10017000D3020008D3020008D302000800000000E8
:10018000D3020008D302000800F002F800F06AF879
:100190000AA090E8000C82448344AAF10107DA45E2
:1001A00001D100F05FF8AFF2090EBAE80F0013F0CA
:1001B000010F18BFFB1A43F001031847D845000090
:1001C000F84500000A444FF0000C10F8013B13F012
:1001D000070408BF10F8014B1D1108BF10F8015BA0
:1001E000641E05D010F8016B641E01F8016BF9D193
:1001F00013F0080F1EBF10F8014BAD1C0C1B09D1EA
:100200006D1E58BF01F801CBFAD505E014F8016B5B
:1002100001F8016B6D1EF9D59142D6D370470000ED
:100220000023002400250026103A28BF78C1FBD8FF
:10023000520728BF30C148BF0B607047642900F0E7
:100240006981782900F0A281002070471FB504F071
:1002500053FA9DE8030000F0A3FA00F0D8F91FBD9F
:1002600010B510BD00F0B2FB1146FFF7EFFF04F030
:10027000A7F900F0D0FB03B4FFF7F2FF03BC00F0D6
:1002800001FC00000B49D1F800C04A685CF8043B4F
:100290001068184442F8040B8C4528BFA1F1DC0C0F
:1002A0008A4228BFA1F1DC02C1F800C04A6020F0F8
:1002B00000407047E4A300200948804709480047F0
:1002C000FEE7FEE7FEE7FEE7FEE7FEE7FEE7FEE706
:1002D000FEE7FEE704480549054A064B7047000063
:1002E000D53B00088901000850A4002050AA002036
:1002F00050A6002050A6002070B5064600F034FA43
:10030000056806F10B0020F00704B4429CBF0020F2
:1003100070BD2B466A68BAB11068A04210D304F1D0
:10032000080188423CBF5068586007D351681019D3
:1003300041601168091B016058601460101D70BD98
:1003400013465268002AE7D12146284600F014FAE5
:100350000028DED170BD70B50446051F00F004FA18
:100360000068002C14BF446870BD002C18BFAC425C
:100370003CBF20466468F8D301680A18AA4218BF37
:10038000456003D12A680546114401602868411977
:10039000A1421CBF6C6070BD61686960216808443F
:1003A000286070BD53EA020C00F069802DE9F04B23
:1003B0004FF00006002B1FBFB3FA83F503FA05F4D4
:1003C00024FA05F65E4012BF1643B2FA82F502FA2D
:1003D00005F4C5F120051EBF22FA05FC44EA0C0411
:1003E000203556EA044C4FEA144418BF641C4FF001
:1003F00000084FF00009904271EB030C39D300293B
:1004000019BFB1FA81F701FA07F6B0FA80F700FADE
:1004100007F6C7F120071EBF20FA07FC46EA0C06C4
:100420002037B6FBF4FCA7EB0507103F07F01F0BC6
:10043000CBF120060CFA0BFB2CFA06F644BFB346B0
:100440000026202FA4BF5E464FF0000B5BEA060C8F
:1004500008BF4FF0010B19EB0B09ABFB027C48EB1B
:100460000608C01B06FB02CC0BFB03CC71EB0C0196
:10047000C1E70B46024641464846BDE8F08B13B53E
:100480004FF000004FF00001AFF30080BDE81C40CA
:10049000704700000FB4044910B503AA029800F099
:1004A0000FFA10BC5DF814FBA80100202DE9F04103
:1004B0000E460446002020622046E168884730B39B
:1004C000252805D0D4E901219047206A401CF2E795
:1004D000E168204600278847050018D0A5F14100B3
:1004E000192802D820354FF40067324629462046A5
:1004F0002760FFF7A3FE40B1012804D0F61D26F0C7
:1005000007060836D8E7361DD6E72846DAE7206A18
:10051000BDE8F0812DE9F0410646002410687529F8
:10052000314616A510D0AFF30080002802DA404211
:1005300013A507E031688A0701D512A502E0490733
:1005400004D511A5012401E0AFF3008000210A22A7
:1005500006F1240709E0B0FBF2FCB0FBF2F302FB6A
:100560001C00303078541846491C0028F3D123462B
:100570002A463046BDE8F04100F048B900000000CE
:100580002D0000002B0000002000000070B5044684
:100590000D4621461068AFF300802188090502D579
:1005A0000F4A7A4402E00E4A7A440E32002104F1E6
:1005B000240305E000F00F060009965D5E54491C17
:1005C0000028F7D120780023000704D5702D02D031
:1005D00009B1022311322046BDE8704000F016B97F
:1005E0007C4100000B4910B5A1F17C020A4CC2E924
:1005F0003712372106E000EB104342F82130074B59
:1006000000FB03400B1EA1F10101F4DC10BD012031
:10061000E8E7000084A30020E119D666CD0D0100B3
:1006200030B505460B462A4613F8014B12F8010B6C
:1006300008B1A042F8D01CB1002802D06D1CF1E72F
:10064000284630BD032A40F2308010F0030C00F041
:10065000158011F8013BBCF1020F624498BF11F8FC
:1006600001CB00F8013B38BF11F8013BA2F10402B5
:1006700098BF00F801CB38BF00F8013B11F003032D
:1006800000F03081083AC0F0088051F8043B083A85
:1006900051F804CBA0E80810F5E7121D5CBF51F833
:1006A000043B40F8043BAFF30080D20724BF11F8AD
:1006B000013B11F801CB48BF11F8012B24BF00F812
:1006C000013B00F801CB48BF00F8012B70474FF009
:1006D00000020429C0F0128010F0030C00F01B800F
:1006E000CCF1040CBCF1020F18BF00F8012BA8BF1D
:1006F00020F8022BA1EB0C0100F00DB85FEAC17CE1
:1007000024BF00F8012B00F8012B48BF00F8012B93
:1007100070474FF0000200B51346944696462039C4
:1007200022BFA0E80C50A0E80C50B1F12001BFF4AA
:10073000F7AF090728BFA0E80C5048BF0CC05DF810
:1007400004EB890028BF40F8042B08BF704748BF5E
:1007500020F8022B11F0804F18BF00F8012B7047D2
:10076000704770477047000000487047F4A30020AE
:10077000704770477047704738B504460A460020F6
:100780006946AFF30080002808BF38BD02460099D3
:10079000204600F0DDF8012038BD012000F00EB940
:1007A000F8B5AFF30080054600200C46102000BFCE
:1007B0000646A819A0420DD9324669460020AFF37B
:1007C0000080070008BF00F0F9F80098A04218BFA9
:1007D0000546C419FFF7C8FF05600746F01D20F065
:1007E00007004619284600F00AF8B44208BFF8BDD1
:1007F000A21B31463868BDE8F84000F0A9B80021D6
:100800000160C0E901107047102070472DE9F047E2
:100810000D4699469246044600F124080168880670
:1008200004D5E06921F01001216000E00120A84218
:1008300001DD471B00E00027A1697A1902EB0900DE
:10084000081AA0612078C00602D42046AFF30080C9
:10085000002608E0D4E901211AF806009047206A32
:10086000401C761C20624E45F4DB2078C0060AD579
:100870002046AFF3008006E0D4E901213020904704
:10088000206A401C2062381EA7F10107F4DC07E053
:10089000D4E9012118F805009047206A401C206225
:1008A000281EA5F10105F3DC2046AFF30080207877
:1008B000000602D50220BDE8F0870120FBE700001A
:1008C000074B70B50D467B4400F061F8044628469E
:1008D00000F070F810B14FF0FF3070BD204670BDD1
:1008E000C33C000010B5203AC0F00B80B1E81850AE
:1008F000203AA0E81850B1E81850A0E81850BFF40A
:10090000F5AF5FEA027C24BFB1E81850A0E81850A8
:1009100044BF18C918C0BDE810405FEA827C24BFFC
:1009200051F8043B40F8043B08BF7047D20728BF8A
:1009300031F8023B48BF11F8012B28BF20F8023BD9
:1009400048BF00F8012B704700487047ECA3002017
:10095000034640688C46002818BF88423CBF0346C7
:100960004068F8D318681844884207D00CF1030097
:1009700020F00700001D411A521A0146081D0A60A6
:10098000FFF7E9BC01694A1C02610878704700B5AD
:100990008FB0CDE901310021059105497944CDE9B8
:1009A000031011466846FFF781FD0FB000BD00003F
:1009B000E5FFFFFF007B00F08000704710B500F0FE
:1009C00039F8BDE8104000F02FB870477546FFF7C2
:1009D000BBFFAE4605006946534620F0070085463A
:1009E00018B020B5FFF776FCBDE820404FF00006B8
:1009F0004FF000074FF000084FF0000B21F0070107
:100A0000AC46ACE8C009ACE8C009ACE8C009ACE849
:100A1000C0098D46704710B50446AFF300802046EC
:100A2000BDE81040FFF727BC002801D000F02AB82D
:100A30007047000010B5012805D0002103A000F088
:100A400027F8012010BD09A1F8E7000053494752DB
:100A5000544D454D3A204F7574206F66206865618E
:100A600070206D656D6F7279000000003A20486556
:100A70006170206D656D6F727920636F7272757031
:100A80007465640001491820ABBEFEE72600020031
:100A900070B505460C460A2000E06D1C00F011F808
:100AA00035B128780028F8D102E0641C00F009F87C
:100AB00014B120780028F8D1BDE870400A20AFF3C7
:100AC000008008B569468DF800000320ABBE08BD64
:100AD00000BFFEE710B5024800F05EFA10BD00004E
:100AE0000402002010B5024800F056FA10BD0000C4
:100AF000640200200146087810381823B0FBF3F296
:100B00000848805CC865032A05D908686FF30900A6
:100B1000001D886503E008686FF309008865886D2B
:100B20007047000002470008014600208A6A8B696E
:100B3000CBB932B1012A0DD0022A03D0032A10D139
:100B40000EE000BFCB6A03F08073B3F1807F00D169
:100B5000012007E0CB6AB3F1C07F00D1012001E0A2
:100B600000E000BF34E08B69B3F5005F1AD132B109
:100B7000012A07D0022A03D0032A11D10AE000BFBC
:100B800001200EE0CB6A03F08073B3F1807F00D1C7
:100B9000012006E0CB6AB3F1C07F00D1012000E064
:100BA00000BF15E032B1012A05D0022A04D0032A81
:100BB0000CD103E000BF00BF012008E0CB6A03F0C6
:100BC0008073B3F1807F00D1012000E000BF00BF3F
:100BD000704730B50468246824F4802405682C60CC
:100BE000046863608468402C04D10468A2600468CF
:100BF000E16003E00468A1600468E26030BD704712
:100C0000F8B513A000F030F8044614B96FF00400F2
:100C1000F8BD12A002F092FA054615B96FF0040073
:100C2000F6E70620009000212046626990470122E5
:100C300069462846EB6898470646012E02D06FF0B9
:100C40000400E5E701212046626990470020DFE7C4
:100C50005732355136342043530000005350490079
:100C600072B600BFFEE7000070B50546074804688D
:100C700007E029462068FFF7D3FC08B1204670BD85
:100C8000E469002CF5D10020F9E7000010000020F5
:100C9000014611B96FF0150070470648006810B999
:100CA0000448016004E003480068C861014801602D
:100CB0000020F1E71000002070B500F00FF80446A6
:100CC00000F010F80546002204E004EB4210FFF7A4
:100CD000DFFF521CAA42F8DB70BD000000487047DD
:100CE000400000200920704710B5044614B96FF089
:100CF000150010BD20A12068FFF792FC50B10A201A
:100D000002F05AF91D4908600846006810B96FF0F2
:100D10000400EEE71AA12068FFF782FC50B10A2018
:100D200002F04AF9154908600846006810B96FF0EA
:100D30000400DEE713A12068FFF772FC50B10A201F
:100D400002F03AF90D4908600846006810B96FF0E2
:100D50000400CEE70CA12068FFF762FC50B10A2026
:100D600002F02AF9054908600846006810B96FF0DA
:100D70000400BEE70020BCE74B310000300000203B
:100D80004B3200004B3300004B34000070B504467A
:100D900014B96FF0150070BDA28991B2A06800F07F
:100DA000D5FB05462846F6E770B504460D4614B94E
:100DB0006FF0150070BD25B1012D02D06FF0150048
:100DC000F8E7EAB2A38999B2A06800F0C7FB002057
:100DD000F0E7000070B5044614B96FF0150070BD5F
:100DE0002EA12068FFF71CFC88B12D48006870B167
:100DF0002B4800680122211DC369294800689847D3
:100E00000546012D02D06FF00400E8E700BF25A1E0
:100E10002068FFF705FC88B12348006870B12248BC
:100E200000680122211DC3691F48006898470546D4
:100E3000012D02D06FF00400D1E700BF1BA1206894
:100E4000FFF7EEFB88B11648006870B118480068DB
:100E50000122211DC3691648006898470546012DE7
:100E600002D06FF00400BAE700BF12A12068FFF7BC
:100E7000D7FB88B11048006870B10F4800680122A4
:100E8000211DC3690C48006898470546012D02D012
:100E90006FF00400A3E700BF0020A0E74B31000083
:100EA000300000204B320000340000204B330000A3
:100EB000380000204B3400003C0000200048704700
:100EC0001C00002070B50446A56D00F04DFB0646E1
:100ED00094F83500022808D08020606500BF00200B
:100EE00084F8340000BF012070BD2068006820F045
:100EF0001600216808602068406920F080002168A1
:100F00004861206C08B9A06C28B12068006820F006
:100F10000800216808602068006820F0010021684E
:100F2000086010E000F020FB801B05280BD9202072
:100F30006065032084F8350000BF002084F8340089
:100F400000BF0320D0E72068006800F001000028FF
:100F5000E8D194F85C103F208840A860012084F814
:100F6000350000BF002084F8340000BF00BFBBE79D
:100F7000014691F83500022803D080204865012001
:100F80007047052081F835000868006820F00100EE
:100F90000A6810600020F3E7F8B5044600200090CE
:100FA0008C4800684FF41651B0FBF1F7A56D2E6820
:100FB00094F85C1008208840304098B120680068A0
:100FC00000F0040070B12068006820F0040021687F
:100FD000086094F85C1008208840A860606D40F0BC
:100FE0000100606594F85C1001208840304068B1D1
:100FF0002068406900F0800040B194F85C10012046
:101000008840A860606D40F00200606594F85C1054
:1010100004208840304068B12068006800F0020079
:1010200040B194F85C1004208840A860606D40F0E6
:101030000400606594F85C1010208840304078B35C
:101040002068006800F0080050B394F85C1010208D
:101050008840A8602068006800F4802080B1206883
:10106000006800F4002028B9206CC8B12046216C2B
:10107000884715E0A06C98B12046A16C88470FE026
:101080002068006800F4807028B92068006820F0AB
:10109000080021680860206C10B12046216C884748
:1010A00094F85C10202088403040002865D02068EB
:1010B000006800F0100000285FD094F85C10202039
:1010C0008840A86094F83500052828D12068006879
:1010D00020F01600216808602068406920F0800038
:1010E00021684861206C08B9A06C28B120680068AC
:1010F00020F008002168086094F85C103F208840C8
:10110000A860012084F8350000BF002084F8340076
:1011100000BF206D10B12046216D8847F8BD2068C2
:10112000006800F4802080B12068006800F400208E
:1011300028B9606C10B12046616C88471DE0E06BF7
:10114000D8B12046E16B884717E02068006800F4BA
:10115000807068B92068006820F01000216808607D
:10116000012084F8350000BF002084F8340000BF5F
:10117000E06B10B12046E16B8847606D38B3606D5D
:1011800000F00100F0B1052084F835002068006807
:1011900020F001002168086000BF0098401C00900A
:1011A000B84200D905E02068006800F0010000287E
:1011B000F3D100BF012084F8350000BF002084F87F
:1011C000340000BFE06C10B12046E16C884700BFDE
:1011D000A4E700000C0000202DE9F04104460025A2
:1011E00000F0C2F9074614B90120BDE8F081606A39
:1011F00000B100BF022084F8350000BF002084F851
:10120000340000BF2068006820F0010021680860F9
:101210000AE000F0A9F9C01B052805D92020606567
:10122000032084F83500E0E72068006800F0010042
:101230000028EED12068056821480540D4E9010165
:101240000843E16808432169084361690843A169CB
:101250000843E1690843216A08430543606A04289A
:1012600003D1D4E90B0108430543206805602068D9
:10127000456925F00705606A0543606A04280DD1B9
:10128000A06A0543E06A48B12046FFF74DFC28B14B
:1012900040206065012084F83500A6E7206845619C
:1012A0002046FFF727FC064694F85C103F20884054
:1012B000B06000206065012084F83500002094E7CC
:1012C0003F8010F02DE9F04704460D4616461F46B4
:1012D0004FF00008D4F8589000BF94F8340001286B
:1012E00002D10220BDE8F087012084F8340000BF5D
:1012F00094F83500012825D1022084F8350000201B
:1013000060653B46324629462046FFF762FC94F86A
:101310005C103F208840C9F808002068006840F051
:10132000160021680860206C28B12068006840F031
:101330000800216808602068006840F0010021680A
:10134000086006E000BF002084F8340000BF4FF0C2
:1013500002084046C6E70000F8B502460B460025E5
:10136000002400200021D6E0012606FA01F51E68BF
:1013700006EA0504AC4274D11E7906F00306012E7C
:1013800004D01E7906F00306022E13D190684F0098
:101390000326BE40B0434F00DE68BE40304390603D
:1013A000506801268E40B0431E79C6F300168E4069
:1013B000304350601E7906F00306032E09D0D06832
:1013C0004F000326BE40B0434F009E68BE403043EE
:1013D000D0601E7906F00306022E13D1CF0802F169
:1013E000200656F827004E07F70E0F26BE40B043E2
:1013F0004F07FF0E1E69BE403043CF0802F12006A2
:1014000046F8270010684F000326BE40B0431E79FF
:1014100006F003064F00BE40304310605E6806F4DD
:101420004036002E76D000BF002600963C4E36682F
:1014300046F480463A4F3E603E46366806F48046A3
:10144000009600BF00BF374E8F0856F827008E0762
:10145000370F0F26BE40B043334EB24202D10026B2
:1014600024E057E0314EB24201D101261EE0304E59
:10147000B24201D1022619E02E4EB24201D103261A
:1014800014E02D4EB24201D104260FE02B4EB242A1
:1014900001D105260AE02A4EB24201D1062605E016
:1014A000284EB24201D1072600E008268F073F0FE1
:1014B000BE4030431B4E8F0846F82700224E30684E
:1014C000A0435E6806F4801606B120431E4E3060CD
:1014D000361D3068A0435E6806F4001606B120434E
:1014E000194E361D3060184E361F3068A0435E68B6
:1014F00006F4003606B12043134E361F3060361F07
:101500003068A0435E6806F4803606B120430E4E74
:10151000083E3060491C1029FFF426AFF8BD0000DA
:1015200044380240083801400000024000040240F4
:1015300000080240000C024000100240001402406B
:1015400000180240001C0240083C0140024613699A
:101550000B400BB1012000E0002070470AB181610F
:1015600001E00B0483617047014800687047000088
:101570000000002003480068034909780844014935
:1015800008607047000000200800002010B50D48DA
:10159000006840F400700B4908600846006840F499
:1015A000806008600846006840F48070086003208E
:1015B00000F0A2F80F2000F007F800F02BF8002050
:1015C00010BD0000003C024070B504460E48007893
:1015D0004FF47A71B1FBF0F00C490968B1FBF0F5FA
:1015E000284601F0CEF808B1012070BD102C07D2BA
:1015F00000222146501E00F041F80548046001E039
:101600000120F2E70020F0E7080000200C00002095
:101610000400002008B500BF002000900E480068BC
:1016200040F480400C4908600846006800F480409F
:10163000009000BF00BF00BF00200090081F00689E
:1016400040F08050091F08600846006800F0805094
:10165000009000BF00BF08BD443802400146084664
:10166000002809DB00F01F0301229A4043099B0078
:1016700003F1E023C3F8002100BF70472DE9F05FBC
:1016800080460D461646002702F064FF074639469D
:101690002A46334601F00700C0F1070ABAF1040FE9
:1016A00002D94FF0040A01E0C0F1070AD14600F167
:1016B000040ABAF1070F02D24FF0000A01E0A0F1CC
:1016C000030AD4464FF0010A0AFA09FAAAF1010AFC
:1016D0000AEA020A0AFA0CFA4FF0010B0BFA0CFBA9
:1016E000ABF1010B0BEA030B4AEA0B04214640461F
:1016F00002F038FFBDE8F09F00BF00F00702064B84
:1017000019684FF6FF031940044B0B4343EA0221CB
:10171000014B196000BF70470CED00E00000FA05B6
:1017200070B504460D460CB9012070BD58480068DC
:1017300000F00700A84209D255490D70084600681C
:1017400000F00700A84201D00120EEE7207800F069
:10175000020002281DD1207800F00400042805D1E1
:101760004C48006840F4E0504A490860207800F096
:101770000800082805D14748006840F46040454902
:1017800008604448006820F0F000A168084341491F
:101790000860207800F00100A8B36068012807D134
:1017A0003C4808380068C0F34040B8B90120BCE7A5
:1017B0006068022802D06068032807D135480838DD
:1017C0000068C0F3406048B90120AEE731480838EE
:1017D0000068C0F3400008B90120A6E72D48006862
:1017E00020F00300616808432A490860FFF7BCFE47
:1017F000064609E0FFF7B8FE801B41F288318842B7
:1018000002D9032091E707E02248006800F00C00AD
:101810006168B0EB810FEDD11D48006800F0070052
:10182000A84209D91A490D700846006800F007005F
:10183000A84201D0012078E7207800F004000428B5
:1018400007D11448006820F4E050E16808431149CA
:101850000860207800F00800082808D10D480068CA
:1018600020F46040216940EAC1000A49086000F0A4
:101870003FF808490968C1F30311074A515CC840A1
:101880000649086006480068FFF79EFE00204CE706
:10189000003C0240083802400A4700080C000020C3
:1018A0000400002001480068704700000C00002080
:1018B00000B5FFF7F7FF04490968C1F38221034A25
:1018C000515CC84000BD0000083802401A470008BB
:1018D00000B5FFF7E7FF04490968C1F34231034A45
:1018E000515CC84000BD0000083802401A4700089B
:1018F0002DE9F047002400250026A1462548006870
:1019000000F00C0020B1042805D008283AD105E0E9
:10191000DFF8849039E0DFF8849036E01D48001F3E
:10192000006800F03F041B48001F006800F48000BE
:1019300078B11A481749091F0968C1F38811A0FB3B
:1019400001700146224600233846FEF72BFD05466E
:101950000EE011480F49091F0968C1F38811A0FB67
:1019600001700146224600233846FEF71BFD05465E
:101970000848001F0068C0F30140401C4600B5FB4A
:10198000F6F902E0DFF8109000BF00BF4846BDE85E
:10199000F0870000083802400024F40000127A00AA
:1019A000F8B504460CB90120F8BD207800F001001C
:1019B000002874D0F948006800F00C0004280DD00D
:1019C000F648006800F00C00082813D1F348001F07
:1019D000006800F48000B0F5800F0BD1EF480838A4
:1019E0000068C0F34040002859D06068002856D1F4
:1019F0000120D9E700BF6068B0F5803F08D1E74813
:101A00000838006840F48030E449083908601EE076
:101A10006068B0F5A02F0DD1E0480838006840F4A8
:101A20008020DE49083908600846006840F48030AC
:101A300008600CE0D9480838006820F48030D749A5
:101A4000083908600846006820F48020086000BF5C
:101A5000606890B1FFF788FD054606E0FFF784FD5A
:101A6000401B642801D903209EE7CC480838006851
:101A7000C0F340400028F1D011E0FFF775FD0546A6
:101A800006E0FFF771FD401B642801D903208BE7B6
:101A9000C24808380068C0F340400028F1D12078DF
:101AA00000F0020002285FD1BC48006800F00C0082
:101AB00058B1BA48006800F00C0008281CD1B7489B
:101AC000001F006800F48000B0B9B448083800680E
:101AD000C0F3400020B1E068012801D0012063E795
:101AE000AE480838006820F0F800216940EAC100DB
:101AF000AA490839086037E0E06800B30120A84926
:101B00000860FFF731FD054606E0FFF72DFD401B9D
:101B1000022801D9032047E7A04808380068C0F32D
:101B200040000028F1D09D480838006820F0F800F7
:101B3000216940EAC10099490839086014E0002091
:101B400097490860FFF710FD054606E0FFF70CFD1A
:101B5000401B022801D9032026E790480838006876
:101B6000C0F340000028F1D1207800F008000828D8
:101B70002CD16069A8B101208A490860FFF7F4FC04
:101B8000054606E0FFF7F0FC401B022801D90320C0
:101B90000AE782486C300068C0F340000028F1D0AA
:101BA00014E000207F490860FFF7DEFC054606E0F0
:101BB000FFF7DAFC401B022801D90320F4E677483E
:101BC0006C300068C0F340000028F1D1207800F0AC
:101BD0000400042870D1002770483830006800F0F5
:101BE000805090B900BF002000906C4838300068E9
:101BF00040F080506949383108600846006800F0BC
:101C00008050009000BF00BF01276748006800F4C3
:101C10008070B0B96448006840F480706249086020
:101C2000FFF7A2FC054606E0FFF79EFC401B0228DA
:101C300001D90320B8E65C48006800F480700028F1
:101C4000F2D000BFA068012808D15448683000686D
:101C500040F001005149683108601DE0A068052886
:101C60000DD14E486830006840F004004B4968319F
:101C700008600846006840F0010008600CE0474832
:101C80006830006820F00100444968310860084667
:101C9000006820F00400086000BFA068A8B1FFF74A
:101CA00063FC054609E0FFF75FFC401B41F2883109
:101CB000884202D9032077E626E038486830006879
:101CC000C0F340000028EED013E0FFF74DFC0546BE
:101CD00008E0FFF749FC401B41F28831884201D9F6
:101CE000032061E62D4868300068C0F340000028FA
:101CF000EFD1012F07D129483830006820F08050FB
:101D000026493831086000BFA069002845D0234823
:101D1000006800F00C0008285DD0A069022845D1B9
:101D200000201F490866FFF71FFC054606E0FFF785
:101D30001BFC401B022801D9032035E61748083850
:101D40000068C0F340600028F1D1D4E907010843DE
:101D5000616A40EA81110122A06AC2EB500041EAA7
:101D600000412C20005D41EA00600C49091F086019
:101D700001200B490866FFF7F7FB054606E0FFF771
:101D8000F3FB401B022801D903200DE60348083865
:101D90000068C0F340600028F1D049E008380240F4
:101DA00000004742800E4742007000400020214959
:101DB0000866FFF7D9FB054606E0FFF7D5FB401B99
:101DC000022801D90320EFE51B480068C0F34060FA
:101DD0000028F2D12CE0A069012800D1E4E51648E2
:101DE000001D0668A069012820D006F48001E06982
:101DF00081421BD106F03F01206A814216D147F68D
:101E0000C0703040616AB0EB811F0FD106F44031E1
:101E10000122A06AC2EB5000B1EB004F06D106F0E0
:101E200070612C20005DB1EB006F01D00120BBE59B
:101E30000020B9E50000474200380240704700002A
:101E4000F8B504462068466820688568C5F38010A8
:101E500048B905F0010030B1C6F3801018B1204632
:101E6000216C8847F8BDC5F3400030B1C6F3C010FF
:101E700018B12046616C8847F4E7C5F3401030B9CB
:101E8000C5F3801018B9C5F3002000287CD0C6F334
:101E9000401000287DD0C5F38010F0B194F85100B7
:101EA00003280ED0606D40F00400606500BF002084
:101EB00000902068C068009020688068009000BF93
:101EC0000BE000BF002000902068C06800902068F0
:101ED0008068009000BF00BFC4E7C5F3401088B120
:101EE000606D40F00100606500BF00200090206838
:101EF000806800902068006820F040002168086039
:101F000000BF00BFC5F3002058B1606D40F008006D
:101F1000606500BF0020009020688068009000BFCE
:101F200000BF606D78B32068406820F0E000216851
:101F30004860012084F8510006F00200022802D017
:101F400006F0010008B32068406820F00300216813
:101F50004860E06C50B11048E16C0865E06CFFF738
:101F600007F818B1606D40F040006065A06C50B19A
:101F70000948A16C0865A06CFEF7FAFF18B1606D06
:101F800040F04000606503E003E02046FFF756FFA5
:101F900068E700BF66E700003D36000810B504465C
:101FA0000CB9012010BD606A38B96068B0F5827F55
:101FB00000D105E00021E16102E0002121616161C1
:101FC0000021A16294F8510028B9002084F8500043
:101FD000204600F047F8022084F85100206800688D
:101FE00020F0400021680860A08800F482702189F8
:101FF00001F404410843A18901F400610843217CF4
:1020000001F002010843217D01F001010843218B09
:1020100001F400710843217F01F0380108432021B9
:10202000095D01F080010843218D01F4005108434E
:10203000216808600421A06901EA104094F8241086
:1020400001F010010843216848602068C06920F44D
:1020500000602168C86100206065012084F851009B
:1020600000209FE710B586B00446142101A8FEF7B2
:1020700050FB3D492068884273D100BF002000908A
:102080003A48006840F480503849086008460068C3
:1020900000F48050009000BF00BF00BF00200090FF
:1020A00032481438006840F00100304914390860A3
:1020B0000846006800F00100009000BF00BFE0206B
:1020C000019002200290002003900320049005203C
:1020D000059001A92648FFF73FF9264826490860E0
:1020E0004FF0C0604860002123488160C1604FF418
:1020F00080610161002141618161C16101624162D0
:10210000FFF76AF808B1FEF7ABFD00BF1A48E064BC
:10211000846300BF17484830184908604FF0C0601A
:1021200048604021154881600021C1604FF4806102
:102130000161002141618161C16101624162FFF77A
:102140004BF808B1FEF78CFD00BF0C48A064846317
:1021500000BF002211462320FFF790FA2320FFF74B
:102160007DFA06B010BD0000003001404438024046
:1021700000000240106402400402002064020020BB
:102180002DE9F04104460E4615460027A06870B9B7
:102190006068B0F5827F0AD1042084F851002B4694
:1021A00032463146204600F0EDF8BDE8F08100BF30
:1021B00094F85000012801D10220F6E7012084F8AC
:1021C000500000BF94F85100012801D0022757E0C9
:1021D00006B10DB9012753E0042084F85100002016
:1021E0006065A663A587E58720646064A086E086B5
:1021F000A068B0F5004F0BD12068006820F04000C7
:10220000216808602068006820F480402168086028
:102210001F48E16C08641F48E16CC8631E48E16C0C
:10222000C8640020E16C0865E38FD4F800C00CF1AD
:102230000C01A26BE06CFFF745F840B1606D40F017
:10224000100060650127012084F8510018E0206823
:10225000006800F04000402805D02068006840F089
:102260004000216808602068406840F02000216834
:1022700048602068406840F001002168486000BF65
:1022800000BF002084F8500000BF38468DE70000F2
:1022900079360008A336000851360008F0B5044628
:1022A0000E4615460027A06868B96068B0F5827FC1
:1022B00009D1042084F851002B463246314620468D
:1022C00000F016F9F0BD00BF94F85000012801D1CC
:1022D0000220F7E7012084F8500000BF94F8510075
:1022E000012801D0022739E006B10DB9012735E0F8
:1022F000042084F8510000206065A663A587E58767
:102300002063A086E0866064E06810B1174820640E
:1023100001E017482064A068B0F5004F0BD1206899
:10232000006820F04000216808602068006820F400
:102330008040216808602068406840F060002168A3
:1023400048602068006800F04000402805D0206800
:10235000006840F040002168086000BF00BF002016
:1023600084F8500000BF3846ACE700000939000887
:102370002D3900080121014A11607047A001002099
:10238000704700002DE9F04704460E4617461D46EB
:102390004FF0000A00BF94F85000012802D102203B
:1023A000BDE8F087012084F8500000BF94F8518008
:1023B000D4F80490B8F1010F0AD0B9F5827F04D1A6
:1023C000A06810B9B8F1040F02D04FF0020A7DE006
:1023D0000EB107B115B94FF0010A77E094F851003A
:1023E000042802D0052084F851000020606526638F
:1023F000A586E586A763A587E5872064606494F8D1
:102400005100042806D13548E16C08643448E16C79
:10241000C86305E03348E16C08643348E16CC86385
:102420003248E16CC8640020E16C0865E38FD4F8A1
:1024300000C00CF10C01A26BE06CFEF743FF48B149
:10244000606D40F0100060654FF0010A012084F8D3
:1024500051003BE02068406840F00100216848607E
:102460000020A16C0864A16CC863A16CC864A16C55
:102470000865E38ED4F800C00CF10C02216BA06C4F
:10248000FEF720FF48B1606D40F0100060654FF02E
:10249000010A012084F8510018E02068006800F06B
:1024A0004000402805D02068006840F040002168C6
:1024B00008602068406840F020002168486020687B
:1024C000406840F002002168486000BF00BF002063
:1024D00084F8500000BF504662E7000079360008DB
:1024E000A3360008953600089F37000851360008CB
:1024F000F0B50446002700BF94F85000012801D130
:102500000220F0BD012084F8500000BF94F8515023
:102510006668012D08D0B6F5827F03D1A06808B99E
:10252000042D01D0022735E009B102B10BB9012712
:1025300030E094F85100042802D0052084F85100BE
:10254000002060652163A386E386A263A387E387F7
:10255000E06820B1134820641348606403E0134826
:102560002064134860642068406840F0E000D4F8BC
:1025700000C0CCF804002068006800F0400040284B
:1025800007D02068006840F04000D4F800C0CCF8C4
:10259000000000BF00BF002084F8500000BF384694
:1025A000AFE70000B133000819340008E533000834
:1025B0004D3400082DE9F04104460E46154600272B
:1025C00000BF94F85000012802D10220BDE8F0813C
:1025D000012084F8500000BF94F85100012801D078
:1025E000022758E006B10DB9012754E0032084F812
:1025F0005100002060652663A586E586A0636064BF
:102600002064A087E087A068B0F5004F0BD1206858
:10261000006820F04000216808602068006840F4ED
:102620008040216808601F48A16C08641E48A16CA6
:10263000C8631E48A16CC8640020A16C0865E38EC5
:10264000D4F800C00CF10C02216BA06CFEF73AFE2E
:1026500040B1606D40F0100060650127012084F8F2
:10266000510018E02068006800F04000402805D0C4
:102670002068006840F040002168086020684068D9
:1026800040F02000216848602068406840F0020067
:102690002168486000BF00BF002084F8500000BFE0
:1026A000384693E7873600081F3700085136000880
:1026B00030B50346002400BF93F85000012801D133
:1026C000022030BD012083F8500000BF01B10AB9DB
:1026D00001243BE093F85100012801D0022435E0A9
:1026E000032083F851000020586519639A86DA8622
:1026F00098639887D8871864D86810B117485864C9
:1027000001E0174858649868B0F5004F0BD118687D
:10271000006820F040001D6828601868006840F4D8
:1027200080401D6828601868406840F0A0001D685F
:1027300068601868006800F04000402805D01868FC
:10274000006840F040001D68286000BF00BF002006
:1027500083F8500000BF2046B3E70000513900085D
:10276000753900080121014A116070479C01002061
:10277000704700000121014A11607047A401002048
:10278000704770B504462546681EB0F1807F01D3BE
:1027900001200FE0681E4FF0E02148610F214FF04B
:1027A000FF3001F0DFFE00204FF0E02188610720BC
:1027B0000861002070BD7047704700002DE9F84F98
:1027C0000446206805682068C668206847694FF09D
:1027D0000009CA4605F00F09B9F1000F0AD105F04A
:1027E000200038B106F0200020B1204601F032FB75
:1027F000BDE8F88FB9F1000F7CD007F0010018B9DF
:1028000006F49070002875D005F0010030B106F490
:10281000807018B1206C40F00100206405F00400C5
:1028200030B107F0010018B1206C40F002002064C4
:1028300005F0020030B107F0010018B1206C40F043
:102840000400206405F0080048B106F0200010B92B
:1028500007F0010018B1206C40F008002064206CE3
:10286000002846D005F0200028B106F0200010B165
:10287000204601F0EFFA20684069C0F3801A206C0E
:1028800000F0080010B9BAF1000F2DD0204601F079
:102890009BFA2068406900F04000402820D100BF2A
:1028A00000BF2168143151E8001F21F04000216869
:1028B000143141E80002002AF3D100BFA06B50B1EF
:1028C0007548A16B0865A06BFEF752FB88B1A06B41
:1028D000016D88470DE02046FFF76EFF09E009E033
:1028E0002046FFF769FF04E02046FFF765FF002060
:1028F00020647DE7206B012876D105F010000028C8
:1029000072D006F010000028FAD000BF002000901E
:1029100020680068009020684068009000BF00BFF9
:102920002068406900F0400040285ED1A06B00683C
:1029300040681FFA80F8B8F1000F54D0A08D4045D0
:1029400051DDA4F82E80A06BC069B0F5807F43D024
:1029500000BF00BF21680C3151E8001F21F48070D6
:1029600021680C3141E80002002AF3D100BF00BF0A
:1029700000BF2168143151E8001F21F001002168D7
:10298000143141E80002002AF3D100BF00BF00BFAC
:102990002168143151E8001F21F0400021681431F2
:1029A00041E80002002AF3D100BF202084F83E0055
:1029B0000020206300BF00BF21680C3151E8001FD8
:1029C00021F0100021680C3141E80002002AF3D107
:1029D00000BFA06BFEF776FAA08DE28D801A81B25F
:1029E0002046FFF7E8FE03E740E0A08DE18D401AA6
:1029F0001FFA80F8E08DC0B3B8F1000F35D000BFEA
:102A000000BF21680C3151E8001F21F4907021684B
:102A10000C3141E80002002AF3D100BF00BF00BF23
:102A20002168143151E8001F21F0010021681431A0
:102A300041E80002002AF3D100BF202084F83E00C4
:102A40000020206300BF00BF21680C3151E8001F47
:102A500021F0100021680C3141E80002002AF3D176
:102A600000BF41462046FFF7A6FEC1E605F0800004
:102A700030B106F0800018B1204601F0A2FBB7E6A5
:102A800005F0400030B106F0400018B1204601F0DA
:102A9000D1F9ADE600BFABE6B53D000810B5044680
:102AA0000CB9012010BDA06900B100E000BF94F88E
:102AB0003D0028B9002084F83C00204600F028F8AA
:102AC000242084F83D002068C06820F4005021686C
:102AD000C860204601F03AFA2068006920F490406E
:102AE000216808612068406920F02A002168486157
:102AF0002068C06840F400502168C860002020644D
:102B0000202084F83D0084F83E000020CAE7000041
:102B100010B586B00446142101A8FDF7FAFD1F493F
:102B20002068884238D100BF002000901C4800680F
:102B300040F010001A4908600846006800F01000D4
:102B4000009000BF00BF00BF002000901448143860
:102B5000006840F001001249143908600846006816
:102B600000F00100009000BF00BF4FF4C060019072
:102B7000022002900020039003200490072005907B
:102B800001A90848FEF7E8FB002211462520FEF7C0
:102B900075FD2520FEF762FD06B010BD0010014056
:102BA000443802400000024070B504460D46164607
:102BB00094F83E00202816D105B10EB9012070BD51
:102BC00000BF94F83C00012801D10220F7E7012062
:102BD00084F83C0000BF002020633246294620468E
:102BE00001F0CAFAEBE70220E9E7000070B50546FC
:102BF0000848006838B1074800680122064983691F
:102C0000044800689847012203490448FFF7CCFFB5
:102C1000044670BD6401002060010020C402002051
:102C200010B5034693F83D00202823D101B10AB91D
:102C3000012010BD00BF93F83C00012801D1022003
:102C4000F7E7012083F83C0000BF19629A84DA8418
:102C500000201864212083F83D0000BF002083F885
:102C60003C0000BF1868C06840F080001C68E0604D
:102C70000020DEE70220DCE70121014A11707047E5
:102C80006101002000BFFEE708B500BF00200090F2
:102C90000E48006840F480000C490860084600684F
:102CA00000F48000009000BF00BF002211463820D1
:102CB000FEF7E4FC3820FEF7D1FC002211463B2051
:102CC000FEF7DCFC3B20FEF7C9FC08BD30380240B3
:102CD00000B587B0142102A8FDF71BFD00BF00203E
:102CE00001901F48006840F004001D490860084634
:102CF000006800F00400019000BF00BF00BF00208A
:102D000001900846006840F08000086008460068AE
:102D100000F08000019000BF00BF00BF00200190C4
:102D20000846006840F0010008600846006800F0AE
:102D30000100019000BF00BF0122D1030948FEF746
:102D40000DFC4FF4004002900120039000200490FD
:102D5000059002A90348FEF7FFFA07B000BD000086
:102D6000303802400000024010B50E480E4908609D
:102D70004FF48270486000210B488160C16001619E
:102D800041614FF4007181610021C16101624162C2
:102D900081620A21C162FFF701F908B1FDF760FF06
:102DA00010BD000000300140AC01002010B50B4800
:102DB0000B4908604FF4E130486000210848816009
:102DC000C16001610C21416100218161C161FFF796
:102DD00065FE08B1FDF744FF10BD00000010014082
:102DE000C402002000BFFEE700BFFEE72DE9F84364
:102DF0000546894617462EA0FDF736FF04461CB946
:102E00006FF00400BDE8F8832CA000F097F90646A7
:102E100016B96FF00400F5E7B9F1000F03D017B150
:102E2000B5F5000F02D96FF01500EBE702208DF821
:102E30000000280C8DF80100280A8DF80200E8B285
:102E40008DF80300FDF7DCFE10B16FF00400D9E748
:102E50000021204662699047042269463046F368A3
:102E600098478046B8F1040F06D0012120466269D8
:102E700090476FF00400C5E73A4649463046F3688C
:102E800098478046474506D0012120466269904711
:102E90006FF00400B6E7012120466269904701F017
:102EA00015FB10B16FF00400ACE73846AAE700004C
:102EB00057323551363420435300000053504900F7
:102EC000704700007CB51DA0FDF7CEFE05460DB98C
:102ED00000207CBD1CA000F031F904460CB9002094
:102EE000F7E79F20019000200090002128466A69A2
:102EF0009047012201A92046E368984703226946CA
:102F0000204623699847012128466A699047002690
:102F100031460EA0FDF7BEFA9DF8000000049DF8B2
:102F2000011040EA01209DF8021040EA01063146F6
:102F300006A0FDF7AFFA3046CBE700005732355117
:102F4000363420435300000053504900494420695F
:102F5000732025780D0A000010B5044614B96FF0EF
:102F6000150010BD206810B96FF01500F9E7216950
:102F70002068FDF7ACFB2068E060A0600020606185
:102F800000BFEEE710B5044614B96FF0150010BD90
:102F9000206810B96FF01500F9E72068FDF7DBF93C
:102FA0002046FDF7D8F90020206160616060206054
:102FB000A060E06000BFEAE770B505460DB90020EB
:102FC00070BD2C20FDF798F904460CB90020F7E7F6
:102FD000206810B12068FDF7BEF92846FDF78CF98E
:102FE00020602068284460602068A0602068E0605D
:102FF0002561002060610548A0610548E061054841
:103000002062054860622046DAE700009B30000835
:103010001D300008592F0008852F00082DE9F041C8
:1030200004460E4615460027B8461CB96FF0150039
:10303000BDE8F081206810B96FF01500F8E760690D
:1030400010B96FF00B00F3E76069A84200D2656920
:10305000D4E901012944884212D2D4E90101471A76
:10306000A5EB07083A463046A168FDF7EBFAF019E0
:1030700042462168FDF7E6FA20684044A06007E078
:103080002A463046A168FDF7DDFAA0682844A06012
:103090006069401B60612846CAE72DE9F04104469B
:1030A0000F4615460026B0461CB96FF01500BDE866
:1030B000F0812069A84202D26FF01500F7E720687E
:1030C00010B96FF01500F2E7E168294460688842A2
:1030D00012D2E1686068461AA5EB06083246394606
:1030E000E068FDF7AFFAB91942462068FDF7AAFA81
:1030F00020684044E0600AE02E464FF00008324667
:103100003946E068FDF79EFAE0683044E060D4E9B3
:1031100004012944884204D2E068A060206960610B
:1031200002E06069284460612846C0E710B50248A3
:10313000FEF786FE10BD0000AC01002070B505460C
:103140000DB9002070BD0748046807E029462068D3
:10315000FDF766FA08B12046F4E7A469002CF5D122
:103160000020EFE718000020014611B96FF01500AC
:1031700070470648006810B90448016004E003483D
:1031800000688861014801600020F1E71800002014
:1031900070B500F015F8044600F00EF80546002260
:1031A00007E0C2EBC20105EB8100FFF7DDFF501C19
:1031B000C2B2A242F5DB70BD00487047800100201A
:1031C00001207047014611B96FF01500704708796A
:1031D000012804D0022803D0032803D101E002E033
:1031E00001E000E000BF00BF0020EFE72DE9F0475D
:1031F00005460E4614461DB96FF01500BDE8F08770
:1032000016B96FF01500F9E7A1462879012804D016
:1032100002282CD003282CD12AE0012C0BD1A2B2F9
:1032200031461648FFF73AF88046B8F1000F01D052
:10323000A01FE3E718E015E0B4F5803F02D94FF492
:10324000803700E02746BAB231460C48FEF798FFB7
:103250008046B8F1000F02D06FF00400CEE7E41B07
:103260003E4400BF002CE7D101F00CF902E001E080
:1032700000E000BF00BF4846C0E70000AC010020EE
:103280002DE9F04705460E4614461DB96FF01500AE
:10329000BDE8F08716B96FF01500F9E7A146287967
:1032A000012804D002282CD003282CD12AE0012C9C
:1032B0000BD1A2B231461648FFF7FAF98046B8F1B1
:1032C000000F01D0A01FE3E718E015E0B4F5803F40
:1032D00002D94FF4803700E02746BAB231460C4895
:1032E000FFF768F98046B8F1000F02D06FF00400D4
:1032F000CEE7E41B3E4400BF002CE7D101F0CEF83E
:1033000002E001E000E000BF00BF4846C0E7000067
:10331000AC0100202DE9F0470646894617461C46B9
:103320001EB96FF01500BDE8F08717B96FF01500F2
:10333000F9E7A2463079012804D002282FD00328CB
:103340002FD12DE0012C0CD1A3B23A4649461748A3
:10335000FFF7CEF88046B8F1000F01D0A01FE2E7DA
:103360001AE017E0B4F5803F02D94FF4803500E051
:103370002546ABB23A4649460C48FFF703F880466B
:10338000B8F1000F02D06FF00400CCE7641B2F44AB
:10339000A94400BF002CE5D101F08CF802E001E067
:1033A00000E000BF00BF5046BDE70000AC010020B8
:1033B00010B504462068C068A16B0880A06B801C13
:1033C000A063E08F401EE087E08F50B9206840681E
:1033D00020F0400021684860E08E10B9204600F0DF
:1033E0004FF810BD10B504462068007BA16B087033
:1033F000A06B401CA063E08F401EE087E08F50B9B7
:103400002068406820F0600021684860E08E10B9B4
:10341000204600F035F810BD10B50446206B00883A
:103420002168C860206B801C2063E08E401EE0860F
:10343000E08E50B92068406820F080002168486024
:10344000E08F10B9204600F01BF810BD10B50446FF
:10345000206B007821680873206B401C2063E08E8D
:10346000401EE086E08E50B92068406820F0800061
:1034700021684860E08F10B9204600F001F810BDC7
:103480007CB504462C4800681821B0FBF1F04FF4DD
:103490007A71B0FBF1F0642148430190FEF764F8C3
:1034A00005462068406820F020002168486000BF81
:1034B000019820B9606D40F02000606508E0019837
:1034C000401E01902068806800F002000028EFD0C4
:1034D00000BF2A466421204600F0E0F918B1606D73
:1034E00040F020006065A06850B900BF0020009047
:1034F0002068C068009020688068009000BF00BF0E
:10350000606D88B994F85100042806D1012084F830
:1035100051002046FEF72EFF0CE0012084F85100F8
:103520002046FFF727F905E0012084F851002046E6
:10353000FEF784FC7CBD00000C00002038B504467A
:103540002068406820F0600021684860FEF70CF8B1
:1035500005462A466421204600F055F918B1606DF1
:1035600040F020006065A06850B900BF00200090C6
:103570002068C068009020688068009000BF00BF8D
:10358000012084F85100606D18B92046FEF7F2FE64
:1035900002E02046FEF752FC38BD00007CB5044630
:1035A000254800681821B0FBF1F04FF47A71B0FBA8
:1035B000F1F0642148430190FDF7D6FF054600BFB6
:1035C000019820B9606D40F02000606508E0019826
:1035D000401E01902068806800F002000028EFD0B3
:1035E00000BF2068406820F0A000216848602A469B
:1035F0006421204600F052F918B1606D40F02000BF
:103600006065A06850B900BF002000902068C068C5
:10361000009020688068009000BF00BF012084F8FF
:103620005100606D18B12046FEF708FC02E020460C
:10363000FFF798F87CBD00000C00002070B505462F
:10364000AC6B0020E087E0862046FEF7F7FB70BDFC
:1036500070B50546AC6B2068406820F00300216817
:103660004860606D40F010006065012084F85100F2
:103670002046FEF7E3FB70BD70B50446A56B2846F7
:10368000FEF77EFE70BD70B50446A56B2846FFF7B9
:103690006FF870BD70B50446A56B2846FFF770F84B
:1036A00070BD70B50546AC6BFDF75EFF0646286839
:1036B000006800F48070B0F5807F2BD020684068EF
:1036C00020F0200021684860A06850B96068B0F51B
:1036D000827F06D12068406820F00300216848609E
:1036E00005E02068406820F001002168486032460B
:1036F0006421204600F087F808B120206065002092
:10370000E087012084F85100606D18B12046FEF773
:1037100095FB70BD2046FEF72DFE00BFF9E7F8B51A
:103720000546AC6BFDF720FF06462868006800F4EC
:103730008070B0F5807F2DD02068406820F0200098
:10374000216848602068406820F0020021684860D5
:1037500032466421204600F0A1F818B1606D40F0B7
:1037600020006065A06850B900BF0020009020686C
:10377000C068009020688068009000BF00BF0020F3
:10378000E086012084F85100606D18B12046FEF7F4
:1037900055FBF8BD2046FEF7E5FF00BFF9E770B521
:1037A0000546AC6BFDF7E0FE06462868006800F4AD
:1037B0008070B0F5807F21D02068406820F0200024
:1037C0002168486032466421204600F067F818B14D
:1037D000606D40F0200060652068406820F00300C4
:1037E000216848600020E086E087012084F85100CD
:1037F000606D18B12046FEF721FB70BD2046FEF734
:10380000B9FF00BFF9E7F8B504460E4615466068F3
:10381000B0F5827F0DD1A068B0F5004F03D0A0684D
:10382000B0F5806F05D12068006820F04000216865
:1038300008606068B0F5827F1FD1A068B0F5806F26
:103840000DD03346002280212046009500F0A4F8D8
:1038500008B3606D40F0200060650320F8BD33467A
:10386000002201212046009500F096F898B1606D85
:1038700040F0200060650320F0E73346002201217C
:103880002046009500F088F828B1606D40F02000D7
:1038900060650320E2E70020E0E700007CB5044615
:1038A0000D461646164800681821B0FBF1F0154980
:1038B000B0FBF1F04FF47A71484301906068B0F5C5
:1038C000827F0DD12B46002280212046009600F0F9
:1038D00063F898B1606D40F02000606503207CBD06
:1038E00000BF019800B908E00198401E01902068CF
:1038F0008068C0F3C0100028F3D100BF0020EEE7BD
:103900000C00002040420F0010B504462068C0683B
:10391000A16B0880A06B801CA063E08F401EE08735
:10392000E08F10B92046FFF709FE10BD10B5044620
:103930002068007BA16B0870A06B401CA063E08F27
:10394000401EE087E08F10B92046FFF7F7FD10BD5D
:1039500010B50446206B00882168C860206B801C6D
:103960002063E08E401EE086E08E10B92046FFF70F
:1039700015FE10BD10B50446206B00782168087351
:10398000206B401C2063E08E401EE086E08E10B964
:103990002046FFF703FE10BD2DE9F84F04460D4603
:1039A00090461E46DDF82890FDF7DEFDA0EB0900ED
:1039B000371AFDF7D9FD82462C480068C0F3CB309A
:1039C0007843009045E0701C002842D0FDF7CCFD04
:1039D000A0EB0A00B84200D2A7BB2068406820F0E4
:1039E000E000216848606068B0F5827F0DD1A06872
:1039F000B0F5004F03D0A068B0F5806F05D1206806
:103A0000006820F0400021680860A06AB0F5005FFF
:103A10000DD100BF2068006820F4005021680860C4
:103A20002068006840F400502168086000BF012051
:103A300084F8510000BF002084F8500000BF03202C
:103A4000BDE8F88FFFE7009800B900270098401EF6
:103A50000090206880682840A84201D1012000E041
:103A600000204045AFD10020EAE700000C00002014
:103A700070470000F8B5044623A0FDF7F5F80546A9
:103A800015B96FF00400F8BD22A0FFF757FB0646FA
:103A900016B96FF00400F6E7B4F5000F02D96FF025
:103AA0001500F0E720208DF80000200C8DF80100B3
:103AB000200A8DF80200E0B28DF80300FDF7A0F8AF
:103AC00010B16FF00400DEE7002128466A699047D4
:103AD000042269463046F36898470746042F06D00B
:103AE000012128466A6990476FF00400CBE7012165
:103AF00028466A69904700F0E9FC10B16FF00400B5
:103B0000C1E70020BFE7000057323551363420436B
:103B1000530000005350490010B5FDF72BFD10BDB8
:103B200000B593B0302107A8FCF7F3FD142102A8DB
:103B3000FCF7EFFD00BF002001902448006840F032
:103B40008050224908600846006800F080500190CB
:103B500000BF00BF00BF002001901D48006840F476
:103B600080401B4908600846006800F480400190CE
:103B700000BF00BF012007900004089002200D90B4
:103B800041050E9104210F91A8211091022111915C
:103B90000421129107A8FDF703FF08B1FDF760F8B3
:103BA0000F20029002200390002004904FF4A050B8
:103BB00005904FF480500690052102A8FDF7B0FD56
:103BC00008B1FDF74DF813B000BD000040380240C9
:103BD000007000400348006840F47000014908602C
:103BE0007047000088ED00E070B505460DB9002073
:103BF00070BD0748046807E029462068FCF710FDFF
:103C000008B12046F4E76469002CF5D10020EFE705
:103C100014000020014611B96FF0150070470648E6
:103C2000006810B90448016004E003480068486176
:103C3000014801600020F1E71400002070B500F099
:103C400015F8044600F00EF80546002207E002EBE6
:103C5000420105EBC100FFF7DDFF501CC2B2A242DA
:103C6000F5DB70BD004870476801002001207047F7
:103C700070B5044614B96FF0150070BD207907289F
:103C800026D2DFE800F0250420212223240012A1FF
:103C90002068FCF7C5FCA8B1FF20FFF78DF911499A
:103CA00008600846006810B96FF00400E5E70122DB
:103CB0000D490E48FEF778FF054615B16FF0040078
:103CC000DBE700BF05E004E003E002E001E000E024
:103CD00000BF00BF0020D0E7554152542044454268
:103CE000554700006401002060010020C40200204C
:103CF0002DE9F04104460D4616461CB96FF015003B
:103D0000BDE8F08115B96FF01500F9E720790728B3
:103D100019D2DFE800F018041314151617000C4828
:103D2000006850B10A48006832462946C36908480D
:103D30000068984707463846E2E705E004E003E0FC
:103D400002E001E000E000BF00BF0020D8E7000073
:103D5000640100202DE9F04104460E4617461CB9C7
:103D60006FF01500BDE8F08116B96FF01500F9E7A6
:103D70002079072817D2DFE800F016041112131477
:103D800015003A4631460A48FEF74AFF054615B186
:103D90006FF00400E6E700F04DFA05E004E003E010
:103DA00002E001E000E000BF00BF0020DAE7000011
:103DB000C402002070B50546AC6B0020E085E084AD
:103DC0002046FEF7F9FC70BD00BF00BF02680C3250
:103DD00052E8002F22F4907102680C3242E800137E
:103DE000002BF3D100BF00BF00BF0268143252E8BD
:103DF000002F22F001010268143242E80013002B68
:103E0000F3D100BF016B01290ED100BF00BF0268D2
:103E10000C3252E8002F22F0100102680C3242E806
:103E20000013002BF3D100BF202180F83E100021A9
:103E30000163704710B504462068C06820F0400058
:103E40002168C860202084F83D002046FEF714FF5A
:103E5000002010BDF8B5044694F83E00222873D126
:103E6000A068B0F5805F0CD1206950B90025A66A22
:103E700020684068C0F308003080A06A801CA062FF
:103E800015E0A56A0026A068B0F5805F03D0A068A1
:103E900028B9206918B920684068287004E02068B3
:103EA000406800F07F002870A06A401CA062E08D8E
:103EB000401E80B2E085002844D12068C06820F010
:103EC00020002168C8602068C06820F480702168E4
:103ED000C8602068406920F0010021684861202006
:103EE00084F83E00206B012826D10020206300BF0B
:103EF00000BF21680C3151E8001F21F0100021683B
:103F00000C3141E80002002AF3D100BF20680068AC
:103F100000F0100010280AD100BF00200090206897
:103F20000068009020684068009000BF00BFA18D2D
:103F30002046FEF740FC02E02046FEF757FE002038
:103F4000F8BD01E00020FBE70220F9E72DE9F84F7A
:103F500004462068006920F44050E1680843216865
:103F600008612169A068084361690843E169084361
:103F700000902068C06849F20C61884300990843AA
:103F80002168C8602068406920F44070A169084336
:103F90002168486176492068884203D075492068C5
:103FA000884203D1FDF794FC814602E0FDF780FCD6
:103FB0008146E069B0F5004F6CD102206168A0FB3A
:103FC000015003461920A9FB007001462A463846D5
:103FD000FCF7E8F96421B0FBF1F04FEA001A022087
:103FE0006168A0FB01510B461920A9FB00712A460C
:103FF0003846FCF7D7F9834602206168A0FB0150E0
:1040000003461920A9FB00712A463846FCF7CAF975
:104010006421B0FBF1F000EBC00101EB0010ABEB51
:104020008000322101EBC0006421B0FBF1F000F010
:10403000F8000AEB400A02206168A0FB0150034629
:104040001920A9FB007001462A463846FCF7AAF958
:10405000834602206168A0FB015003461920A9FB9A
:1040600000712A463846FCF79DF96421B0FBF1F057
:1040700000EBC00101EB0010ABEB8000322101EB43
:10408000C0006421B0FBF1F000F00700504421684B
:1040900088606AE004206168A0FB01500346192093
:1040A000A9FB007001462A463846FCF77BF9824698
:1040B00004206168A0FB015003461920A9FB007091
:1040C00001462A463846FCF76DF96421B0FBF1F051
:1040D00000EBC00101EB0010AAEB8000322101EBE4
:1040E00000106421B0FBF1F000F0F00A04206168D8
:1040F000A0FB017003461920A9FB00513A4628464F
:10410000FCF750F96421B0FBF1F00AEB001A04202F
:104110006168A0FB01510B461920A9FB00712A46DA
:104120003846FCF73FF9834604206168A0FB015044
:1041300003461920A9FB007001462A463846FCF7C1
:1041400031F96421B0FBF1F000EBC00101EB00108C
:10415000ABEB8000322101EB00106421B0FBF1F0E9
:1041600000F00F00504421688860BDE8F88F00001F
:10417000001001400014014010B5034699629A8571
:10418000DA8500201864222083F83E0000BF00205A
:1041900083F83C0000BF186928B11868C06840F473
:1041A00080701C68E0601868406940F001001C687D
:1041B00060611868C06840F020001C68E060002062
:1041C00010BD014691F83D00212828D18868B0F53E
:1041D000805F0BD1086948B90A6A1088C0F30800EB
:1041E0000B685860086A801C086205E00B6A581C5E
:1041F000086218780B685860C88C401E80B2C8846A
:1042000058B90868C06820F080000B68D86008685A
:10421000C06840F040000B68D86000207047022062
:10422000FCE7000010B50248FEF7C8FA10BD000018
:10423000C402002000BF044800780128FBD1002000
:1042400001490870704700006101002000BFFEE7CF
:1042500070B506460C4615461EB115B1B4F5000FF3
:1042600002D36FF0150070BD08E02046FFF702FC96
:1042700010B16FF00400F6E704F58054281EA5F194
:104280000105F2D100BFEEE770B506460CA0FCF7C1
:10429000EBFC054615B96FF0040070BD0BA0FEF7EE
:1042A0004DFF044614B96FF00400F6E7FEF70AFE6E
:1042B0000749884202D06FF00400EEE70020ECE7E7
:1042C00057323551363420435300000053504900D3
:1042D0001740EF002DE9F84F81460E4692461D46E5
:1042E000B9F1000F03D0B6F5000F00D81DB96FF07B
:1042F0001500BDE8F88FB5F5000F01D94FF40005A2
:1043000022A0FCF7B1FC044614B96FF00400F0E7FA
:1043100021A0FEF713FF074617B96FF00400E8E786
:1043200003208DF80000300C8DF80100300A8DF864
:104330000200F0B28DF80300002120466269904728
:10434000042269463846FB6898478046B8F1040F56
:1043500006D001212046626990476FF00400C8E74B
:104360002A46514638463B6998478046454506D01F
:1043700001212046626990476FF00400B9E70121EE
:104380002046626990472846B3E70000573235510E
:104390003634204353000000535049002DE9F05FAC
:1043A00081460D4616461C46B9F1000F04D01EB1D9
:1043B000B5F5000F00D81CB96FF01500BDE8F09FEF
:1043C000B4F5000F01D94FF40004A046C5F30B006B
:1043D0002044012101EB103000F0FF0A524629462B
:1043E0004846FFF735FF10B16FF00400E6E7E8B28A
:1043F0002044012101EB102000F0FF0BBBF1010F65
:1044000009D1A2B231462846FEF7F0FCA04237D0CF
:104410006FF00400D2E7E8B2C0F580773A46314643
:104420002846FEF7E3FCB84202D06FF00400C5E76F
:104430003D443E44E41B20E0B4F5807F12D94FF4A4
:10444000807231462846FEF7D1FCB0F5807F02D05D
:104450006FF00400B2E705F5807506F58076A4F5E7
:1044600080740AE0A2B231462846FEF7BFFCA042A3
:1044700002D06FF00400A1E70024002CDCD100BFC3
:1044800040469BE700BF044800680028FBD000209E
:104490000149086070470000A001002000BF0448E7
:1044A00000680028FBD00020014908607047000028
:1044B0009C01002000BF044800680028FBD00020B9
:1044C0000149086070470000A40100207CB51DA0D0
:1044D000FCF7CAFB054615B96FF004007CBD1CA0B3
:1044E000FEF72CFE044614B96FF00400F6E7052031
:1044F0000190FF200090002128466A699047012220
:1045000001A92046E36898470646012E02D06FF0C5
:104510000400E3E70AE00122694620462369984740
:104520000646012E02D06FF00400D7E79DF8000088
:1045300000F001000028EED1012128466A69904769
:104540000020CBE75732355136342043530000006A
:104550005350490002480068C0F302207047000031
:104560000CED00E010B5002804DB0A07130E054A25
:10457000135406E00A07140E034A00F00F031B1F32
:10458000D45410BD00E400E018ED00E073B50D4612
:1045900008A0FFF729FB04460CB900207CBD0122CE
:1045A00069462046E3689847012801D10098F5E75D
:1045B0000020F3E75541525420444542554700003E
:1045C000FCF7E4FFFFF7ACFAFEF782FBFEF75CFBBB
:1045D000FEF7CAFBFEF7EAFB00F002F800BFFEE7B9
:1045E0002DE9F041FCF768FBFFF728FBFEF7D0FD53
:1045F000FCF764FC04460CB9BDE8F0812046616814
:104600008847002004E000F10A01294A1154401CA7
:10461000B0F5A04FF7D3FCF7A7FF0646FBF732FE35
:104620000546C01705EB10600012A5EB00273946C0
:1046300020A0FBF72FFF4FF4A0431D4A3946204628
:10464000E568A847B0F5A04F00D0D5E7FCF78CFF90
:10465000851B29461BA0FBF71DFFFCF785FF0646BF
:104660004FF48073204A394620462569A847B0F5A3
:10467000807F00D0C0E7FCF777FF851B294611A09B
:10468000FBF708FF00250CE005F00F0018B915B185
:1046900016A0FBF7FFFE1448415D15A0FBF7FAFEDC
:1046A0006D1CFF2DF0D911A0FBF7F4FE00BFA3E7AE
:1046B00008030020616464722069732025640D0A78
:1046C00000000000577269746520323034383020A1
:1046D0006279746573206279205350492054696D62
:1046E000653A2025640D0A00085300200D0A0000D9
:1046F00030782558090000004FF04070E1EE100AB4
:10470000704700061016000610160000000000009A
:10471000000001020304060708090000000001026E
:10472000030430313233343536373839414243446B
:104730004546403058003031323334353637383919
:10474000616263646566403078000000573235511D
:1047500036340000443100004B3100004432000088
:104760004B320000443300004B330000443400005F
:104770004B3400005732355136342043530000008B
:104780005541525420444542554700005350493149
:1047900000000000B447000800000020AC01000049
:1047A000C401000848480008AC010020A4A800008B
:1047B000200200084132104201D324F4134C471464
:1047C0000889421B085104139D431B08D50801109A
:1047D0001A5424393C2C0402404913E90C1408A94A
:1047E0000D1B088D0441AA5C200A102020AA642019
:1047F0000A104020AA6C200A1080206A5820112B31
:104800000240082920415AD5209A60200A1102202E
:104810009A68200A1104209A70202911E9209A74BC
:1048200020A9A06920815A802813713C1408553DA5
:104830001B08F108415A8C1813C531140881321B2A
:0848400008ED08CB15333C81A3
:040000050800018965
:00000001FF
