:020000040800F2
:10000000881D002081020008D7260008F52400087A
:10001000D52600085D0A00085939000800000000D4
:100020000000000000000000000000008B34000809
:100030001D0B000800000000D9260008FD34000850
:100040009B0200089B0200089B0200089B0200081C
:100050009B0200089B0200089B0200089B0200080C
:100060009B0200089B0200089B0200089B020008FC
:100070009B0200089B0200089B0200089B020008EC
:100080009B0200089B0200089B0200089B020008DC
:100090009B0200089B0200089B0200089B020008CC
:1000A0009B0200089B0200089B0200089B020008BC
:1000B0009B0200089B0200089B0200089B020008AC
:1000C0009B0200089B0200089B020008D928000838
:1000D0009B0200084D3900089B0200089B020008A3
:1000E0009B0200089B0200089B0200089B0200087C
:1000F0009B0200089B0200089B0200089B0200086C
:100100009B0200089B0200089B0200089B0200085B
:100110009B0200089B0200089B0200089B0200084B
:10012000610A00089B0200089B0200086D0A000893
:100130009B0200089B0200089B0200089B0200082B
:100140009B0200089B0200089B0200089B0200081B
:100150009B0200089B0200089B0200089B0200080B
:100160009B0200089B0200089B0200089B020008FB
:100170009B0200089B0200089B0200080000000090
:100180009B0200089B02000800F002F800F068F8EB
:100190000AA090E8000C82448344AAF10107DA45E2
:1001A00001D100F05DF8AFF2090EBAE80F0013F0CC
:1001B000010F18BFFB1A43F0010318471C3A000057
:1001C0003C3A00000A444FF0000C10F8013B13F0D9
:1001D000070408BF10F8014B1D1108BF10F8015BA0
:1001E000641E05D010F8016B641E01F8016BF9D193
:1001F00013F0080F1EBF10F8014BAD1C0C1B09D1EA
:100200006D1E58BF01F801CBFAD505E014F8016B5B
:1002100001F8016B6D1EF9D59142D6D370470000ED
:100220000023002400250026103A28BF78C1FBD8FF
:10023000520728BF30C148BF0B607047642900F0E7
:100240004D81782900F08681002070471FB503F0AA
:100250005FFC9DE8030000F069FA1FBD10B510BDFA
:1002600000F07AFB1146FFF7F1FF03F031FC00F0DC
:1002700098FB03B4FFF7F2FF03BC00F0C9FB0000DA
:100280000948804709480047FEE7FEE7FEE7FEE72A
:10029000FEE7FEE7FEE7FEE7FEE7FEE70448054966
:1002A000054A064B70470000953500088901000893
:1002B00088170020881D0020881900208819002038
:1002C00070B5064600F016FA056806F10B0020F03E
:1002D0000704B4429CBF002070BD2B466A68BAB1C7
:1002E0001068A04210D304F1080188423CBF506856
:1002F000586007D35168101941601168091B0160EB
:1003000058601460101D70BD13465268002AE7D172
:100310002146284600F0F6F90028DED170BD70B500
:100320000446051F00F0E6F90068002C14BF44687D
:1003300070BD002C18BFAC423CBF20466468F8D3A7
:1003400001680A18AA4218BF456003D12A68054609
:100350001144016028684119A1421CBF6C6070BD46
:100360006168696021680844286070BD53EA020C26
:1003700000F069802DE9F04B4FF00006002B1FBF05
:10038000B3FA83F503FA05F424FA05F65E4012BFCA
:100390001643B2FA82F502FA05F4C5F120051EBF34
:1003A00022FA05FC44EA0C04203556EA044C4FEAD4
:1003B000144418BF641C4FF000084FF0000990422D
:1003C00071EB030C39D3002919BFB1FA81F701FA97
:1003D00007F6B0FA80F700FA07F6C7F120071EBF4C
:1003E00020FA07FC46EA0C062037B6FBF4FCA7EB24
:1003F0000507103F07F01F0BCBF120060CFA0BFB93
:100400002CFA06F644BFB3460026202FA4BF5E4652
:100410004FF0000B5BEA060C08BF4FF0010B19EB25
:100420000B09ABFB027C48EB0608C01B06FB02CCA9
:100430000BFB03CC71EB0C01C1E70B4602464146B6
:100440004846BDE8F08B13B54FF000004FF00001B7
:10045000AFF30080BDE81C40704700000FB40449B2
:1004600010B503AA029800F0F1F910BC5DF814FB76
:100470003C0200202DE9F0410E4604460020206297
:100480002046E168884730B3252805D0D4E901210A
:100490009047206A401CF2E7E16820460027884721
:1004A000050018D0A5F14100192802D820354FF4D5
:1004B00000673246294620462760FFF7BFFE40B15D
:1004C000012804D0F61D26F007060836D8E7361DA9
:1004D000D6E72846DAE7206ABDE8F0812DE9F04149
:1004E0000646002410687529314616A510D0AFF3D2
:1004F0000080002802DA404213A507E031688A072D
:1005000001D512A502E0490704D511A5012401E097
:10051000AFF3008000210A2206F1240709E0B0FBB6
:10052000F2FCB0FBF2F302FB1C00303078541846AA
:10053000491C0028F3D123462A463046BDE8F04145
:1005400000F02AB9000000002D0000002B00000080
:100550002000000070B504460D4621461068AFF338
:1005600000802188090502D50F4A7A4402E00E4A2C
:100570007A440E32002104F1240305E000F00F0656
:100580000009965D5E54491C0028F7D120780023AD
:10059000000704D5702D02D009B102231132204684
:1005A000BDE8704000F0F8B8CC35000030B5054625
:1005B0000B462A4613F8014B12F8010B08B1A04272
:1005C000F8D01CB1002802D06D1CF1E7284630BDE0
:1005D000032A40F2308010F0030C00F0158011F86F
:1005E000013BBCF1020F624498BF11F801CB00F847
:1005F000013B38BF11F8013BA2F1040298BF00F89B
:1006000001CB38BF00F8013B11F0030300F030814B
:10061000083AC0F0088051F8043B083A51F804CB7E
:10062000A0E80810F5E7121D5CBF51F8043B40F844
:10063000043BAFF30080D20724BF11F8013B11F84F
:1006400001CB48BF11F8012B24BF00F8013B00F893
:1006500001CB48BF00F8012B70474FF0000204297E
:10066000C0F0128010F0030C00F01B80CCF1040CE1
:10067000BCF1020F18BF00F8012BA8BF20F8022B15
:10068000A1EB0C0100F00DB85FEAC17C24BF00F8BB
:10069000012B00F8012B48BF00F8012B70474FF0E9
:1006A000000200B5134694469646203922BFA0E8C2
:1006B0000C50A0E80C50B1F12001BFF4F7AF0907CE
:1006C00028BFA0E80C5048BF0CC05DF804EB8900BF
:1006D00028BF40F8042B08BF704748BF20F8022B02
:1006E00011F0804F18BF00F8012B7047704770471A
:1006F00070470000004870472C1700207047704773
:100700007047704738B504460A4600206946AFF383
:100710000080002808BF38BD02460099204600F03E
:10072000DDF8012038BD012000F00EB9F8B5AFF3B7
:100730000080054600200C46102000BF0646A81980
:10074000A0420DD9324669460020AFF30080070071
:1007500008BF00F0F9F80098A04218BF0546C41978
:10076000FFF7C8FF05600746F01D20F00700461997
:10077000284600F00AF8B44208BFF8BDA21B314673
:100780003868BDE8F84000F0A9B800210160C0E970
:1007900001107047102070472DE9F0470D4699462B
:1007A0009246044600F124080168880604D5E069F1
:1007B00021F01001216000E00120A84201DD471B6B
:1007C00000E00027A1697A1902EB0900081AA0616C
:1007D0002078C00602D42046AFF30080002608E04F
:1007E000D4E901211AF806009047206A401C761CC3
:1007F00020624E45F4DB2078C0060AD52046AFF3D0
:10080000008006E0D4E9012130209047206A401C96
:100810002062381EA7F10107F4DC07E0D4E90121CA
:1008200018F805009047206A401C2062281EA5F198
:100830000105F3DC2046AFF300802078000602D5E6
:100840000220BDE8F0870120FBE70000074B70B5F0
:100850000D467B4400F061F80446284600F070F82D
:1008600010B14FF0FF3070BD204670BD4F32000018
:1008700010B5203AC0F00B80B1E81850203AA0E83B
:100880001850B1E81850A0E81850BFF4F5AF5FEA6F
:10089000027C24BFB1E81850A0E8185044BF18C922
:1008A00018C0BDE810405FEA827C24BF51F8043BC9
:1008B00040F8043B08BF7047D20728BF31F8023B1D
:1008C00048BF11F8012B28BF20F8023B48BF00F8B1
:1008D000012B7047004870472417002003464068EA
:1008E0008C46002818BF88423CBF03464068F8D3B6
:1008F00018681844884207D00CF1030020F0070064
:10090000001D411A521A0146081D0A60FFF707BD73
:1009100001694A1C02610878704700B58FB0CDE9C3
:1009200001310021059105497944CDE903101146B3
:100930006846FFF79FFD0FB000BD0000E5FFFFFF19
:10094000007B00F08000704710B500F039F8BDE87A
:10095000104000F02FB870477546FFF7BBFFAE465A
:1009600005006946534620F00700854618B020B5BB
:10097000FFF794FCBDE820404FF000064FF0000761
:100980004FF000084FF0000B21F00701AC46ACE837
:10099000C009ACE8C009ACE8C009ACE8C0098D46A4
:1009A000704710B50446AFF300802046BDE8104004
:1009B000FFF75FBC002801D000F02AB870470000A4
:1009C00010B5012805D0002103A000F027F8012070
:1009D00010BD09A1F8E7000053494752544D454D59
:1009E0003A204F7574206F662068656170206D65D0
:1009F0006D6F7279000000003A2048656170206DCB
:100A0000656D6F727920636F7272757074656400C2
:100A100001491820ABBEFEE72600020070B505466E
:100A20000C460A2000E06D1C00F011F835B1287862
:100A30000028F8D102E0641C00F009F814B1207815
:100A40000028F8D1BDE870400A20AFF3008008B557
:100A500069468DF800000320ABBE08BDFEE700002C
:100A6000014800F0A1B9000098020020014800F000
:100A70009BB90000F802002001681823CAB2103A9E
:100A8000B2FBF3F2054B6FF30901032A9B5CC365CC
:100A900000D9091D81650846704700001A3B00080F
:100AA00010B5014600208B698A6A4FF0C07453B1BB
:100AB000B3F5005F15D072B1012A0CD0022A0AD01A
:100AC000032A09D104E01AB1012A06D0022A03D16F
:100AD000C96AC90100D5012010BDC96AA142FAD076
:100AE00010BD002AF7D0012AF2D0022AF3D0032A3F
:100AF000F3D010BD30B50468256825F48025256045
:100B0000046863608368402B036803D099600068C1
:100B1000C26030BD9A600068C16030BD704772B677
:100B2000FEE7000070B505460748046807E029465F
:100B30002068FFF73BFD08B1204670BDE469002C3A
:100B4000F5D1002070BD00001000002030B1054933
:100B50000A6802B1C2610860002070476FF015009A
:100B6000704700001000002070B500F00FF8044638
:100B700000F010F80546002305E000BF04EB431029
:100B8000FFF7E4FF5B1CAB42F8DB70BD0048704729
:100B9000580000200D20704770B505002CD019A119
:100BA0002868FFF703FD184C6FF0040620B10A20F7
:100BB00001F0FCFD206010B314A12868FFF7F6FCDB
:100BC00020B10A2001F0F2FD2060C0B110A1286818
:100BD000FFF7ECFC20B10A2001F0E8FD206070B1C5
:100BE0000CA12868FFF7E2FC20B10A2001F0DEFD2D
:100BF000206020B1002070BD6FF0150070BD304640
:100C000070BD00004B310000480000204B32000056
:100C10004B3300004B34000020B18189806889B2D9
:100C200000F03EBB6FF01500704710B56FF0150275
:100C300010B119B1012901D0104610BDCAB2818985
:100C4000806889B200F031FB002010BD70B504004F
:100C500010D020A12068FFF7A9FC1F4D6FF00406FB
:100C600058B1286848B10122C369211D984701285D
:100C70002BD102E06FF0150070BD18A12068FFF7BE
:100C800095FC38B1686828B10122C369211D9847D5
:100C900001281AD112A12068FFF788FC40B128680A
:100CA00030B1A8680122211DC369984701280CD1E1
:100CB0000CA12068FFF77AFC48B1E86838B101223E
:100CC000C369211D9847012801D0304670BD00201E
:100CD00070BD00004B310000480000204B32000086
:100CE0004B3300004B340000004870471C000020CC
:100CF0002DE9F0410446876D00F0DCFA064694F8D1
:100D000035000025022806D08020606584F8345024
:100D10000120BDE8F0812068016821F01601016022
:100D20002068416921F080014161206C08B9A06C04
:100D300020B12068016821F0080101602068016885
:100D400021F0010101600CE000F0B4FA801B0528DD
:100D500007D920206065032084F8350084F83450DA
:100D6000D7E720680068C007EED194F85C103F20F8
:100D70008840B860012084F8350084F834500020A1
:100D8000C7E790F83510022903D080214165012082
:100D90007047052180F835100068016821F00101D5
:100DA00001600020704700002DE9F84304464FF031
:100DB0000009CDF8009063484FF41651A56D006806
:100DC000B0FBF1F72E6894F85C10082000FA01F1EE
:100DD00031420FD021680A6852070BD50A6822F009
:100DE00004020A6094F85C108840A860606D40F0CE
:100DF0000100606594F85C104FF0010808FA01F0FA
:100E0000304208D021684969090604D5A860606DA0
:100E100040F00200606594F85C1004208840304285
:100E200008D021680968890704D5A860606D40F082
:100E30000400606594F85C1010208840304218D09F
:100E400021680968090714D5A8602068016849036A
:100E500004D50068000308D5A16C07E00168C90546
:100E600003D4016821F008010160216C09B120461A
:100E7000884794F85C1020208840304231D02168A7
:100E80000968C9062DD5A86094F8350005282068A2
:100E9000016806D0490347D5006800031DD4616C82
:100EA0001CE021F0160101602068416921F08001F9
:100EB0004161206C08B9A06C20B12068016821F064
:100EC0000801016094F85C103F208840A86084F815
:100ED000358084F83490216D1FE0E16B09B1204624
:100EE0008847606D00282BD0606DC00714D00520A6
:100EF00084F835002068016821F001010160009844
:100F0000401C0090B84203D820680068C007F6D1A2
:100F100084F8358084F83490E16C002910D001B059
:100F20002046BDE8F04308470168C905D5D40168EB
:100F300021F01001016084F8358084F83490CCE70A
:100F4000BDE8F8830C0000202DE9F041044600F0D4
:100F5000B1F906465CB1022084F83500002584F81A
:100F600034502068016821F0010101600DE001208A
:100F7000BDE8F08100F09EF9801B052805D92020EE
:100F80006065032084F83500F2E720680068C00738
:100F9000F0D12268116820480140D4E901031843C8
:100FA000D4E903363343184363691843A3691843EC
:100FB000E3691843236A18430843616A042903D18B
:100FC000D4E90B1319430843106020684069666A2E
:100FD00020F0070130460E43012704280CD1A06AF7
:100FE0000643E06A40B12046FFF75AFD20B1402099
:100FF000606584F83570BAE7206846612046FFF7DF
:101000003BFD94F85C203F2191408160656584F848
:1010100035700020ACE700003F8010F02DE9F04172
:101020000446866D90F83400002501280DD001207B
:1010300084F8340094F835700020012F07D084F82C
:10104000340002252846BDE8F0810220FBE7022794
:1010500084F8357060652046FFF74CFD94F85C100D
:101060003F208840B0602068016841F016010160AF
:10107000206C20B12068016841F0080101602068FF
:10108000016841F001010160DCE7000070B5044631
:1010900000F010F90546601C02D0044800780444B2
:1010A00000F008F9401BA042FAD370BD00000020F8
:1010B0002DE9F84FDFF8BCA10022012503264FF0EF
:1010C0000F090AF1040BAAF1040E00BF0B6805FA20
:1010D00002F42340A34270D10F7907F00307012FD8
:1010E00001D0022F16D187684FEA420806FA08FCA1
:1010F00027EA0C07D1F80CC00CFA08FC4CEA070CE4
:10110000C0F808C04768A7430C79C4F300149440A2
:101110003C4344600C79E443A4070AD0C4684FEA16
:10112000420C06FA0CF7BC438F6807FA0CF727430A
:10113000C7600C7904F00304022C12D1D40800EB30
:10114000840CDCF820405707FF0E09FA07F824EA60
:101150000804D1F8108008FA07F848EA0408CCF827
:10116000208004684FEA420C06FA0CF7BC430F7962
:1011700007F0030707FA0CF7274307604C6814F4DD
:10118000403F70D03C4C276847F480472760246874
:1011900022F0030704F480440094384C07EB040C5D
:1011A000DCF8084897074FEA177809FA08F7BC43B4
:1011B000334FB84202D1002724E054E0314FB84207
:1011C00001D101271EE0304FB84201D1022719E0BA
:1011D0002E4FB84201D1032714E02D4FB84201D160
:1011E00004270FE02B4FB84201D105270AE02A4F10
:1011F000B84201D1062705E0284FB84201D10727A0
:1012000000E0082707FA08F72743CCF80878DAF84F
:1012100000405746D1F804C09C435FEACC2C00D56F
:101220001C433C60DBF800405F46D1F804C09C439F
:101230005FEA8C2C00D51C433C60DEF8004077460A
:10124000D1F804C09C435FEA8C3C00D51C433C6051
:10125000084F083F3C68D1F804C09C435FEACC3C8F
:1012600000D51C433C60521C102AFFF42FAFBDE890
:10127000F88F0000083C0140443802400030014033
:10128000000002400004024000080240000C02403E
:10129000001002400014024000180240001C0240EE
:1012A0000069084000D0012070470AB18161704791
:1012B0000904FBE701488068704700000000002037
:1012C0000248816802781144816070470000002064
:1012D0000B4810B5016841F400710160016841F4E8
:1012E00080610160016841F480710160032000F0B9
:1012F0006FF80F2000F006F800F024F8002010BD71
:10130000003C024070B50D4D04464FF47A712878C8
:10131000B1FBF0F00A490968B1FBF0F000F0DDFE26
:1013200048B9102C07D200222146501E00F030F898
:1013300000206C6070BD012070BD00000000002026
:101340000C0000200A4808B5016841F480410160A2
:10135000006800F4804000900548001F016841F0DB
:1013600080510160006800F08050009008BD0000CE
:1013700044380240002809DB00F01F02012191409F
:101380004009800000F1E020C0F800117047000023
:10139000F0B40E4B1B680C46C3F30223C3F10705E0
:1013A000042D00D90425191D072901D2002300E0CE
:1013B000DB1E012606FA05F1491E214099409E4098
:1013C000761E16403143F0BC02F026BB0CED00E067
:1013D000064900F0070208684FF6FF03184040EA8C
:1013E0000220034A10430860704700000CED00E043
:1013F0000000FA052DE9F0470E46050065D0DFF83C
:101400001481D8F80000F7B200F00700B04207D20C
:1014100088F80070D8F8000000F00700B04254D1FE
:1014200028683D4C810712D5400703D5206840F459
:10143000E05020602878000703D5206840F4604021
:1014400020602068A96820F0F00008432060287818
:10145000C0072DD0304968680839012812D0022809
:1014600013D0032811D00968890700292DDA2168D3
:1014700021F0030101432160FFF71CFF814641F287
:10148000883A0EE009688903EFE709688901ECE70B
:10149000FFF710FFA0EB0901514502D90320BDE879
:1014A000F0872068696800F00C00B0EB810FEFD185
:1014B000D8F80010404601F00701B14207D9077083
:1014C000006800F00700B04201D00120E7E728786B
:1014D000400705D52068E96820F4E0500843206003
:1014E0002878000706D52068296920F4604040EA82
:1014F000C100206000F038F82168084AC1F30311E8
:10150000515CC8400649086006480068FFF7FAFECB
:101510000020C4E7003C024008380240223B00089B
:101520000C000020040000200448054900680968F8
:10153000044AC1F38221515CC84070470C0000206E
:1015400008380240323B0008044805490068096831
:10155000044AC1F34231515CC84070470C0000207E
:1015600008380240323B0008154810B5006810F0FA
:101570000C02144813D04110042A0FD0082A0ED1AF
:101580000F4C241F2268236802F03F025B0207D53C
:101590002068C0F38810A0FB010106E0084610BDDA
:1015A0002168C1F38811A1FB00010023FEF7DEFED4
:1015B0002168C1F30141491C4900B0FBF1F010BDA5
:1015C000083802400024F4002DE9F84F04006ED0E2
:1015D0002078DFF84C93C007A9F104054AD009F13F
:1015E00004000168C1F38101012908D00068C0F33B
:1015F000810002280AD1D9F80000400206D52868E7
:10160000800337D560680028E1D033E06068B0F52A
:10161000803F10D0B0F5A02F286810D020F4803083
:101620002860286820F4802028606068A8B1FFF74F
:1016300041FE06460DE0286840F48030F4E740F4AF
:1016400080202860F7E700BFFFF734FE801B642886
:1016500073D828688003F7D50CE0FFF72BFE064609
:1016600005E000BFFFF726FE801B6428F0D828683D
:101670008003F7D42078DFF8AC8280074FF0000AAF
:101680003ED5A748001D016811F00C0F08D0006876
:10169000C0F3810002280BD1D9F80000400207D422
:1016A0002868800716D5E068012800D112E033E1F0
:1016B000E068B8B10120C8F80000FFF7FBFD06465E
:1016C00005E000BFFFF7F6FD801B0228C0D82868A0
:1016D0008007F7D52868216920F0F80040EAC100AA
:1016E00028600DE0C8F800A0FFF7E4FD064604E01E
:1016F000FFF7E0FD801B02281FD828688007F7D479
:101700002078000722D5864F87486169703771B10C
:1017100001210160FFF7CEFD064604E0FFF7CAFD98
:10172000801B022809D838688007F7D50EE0C0F87A
:1017300000A0FFF7BFFD064605E082E0FFF7BAFD17
:10174000801B02287DD838688007F7D420784007AE
:1017500068D5DFF8CCB100270BF13C0BDBF80000BB
:10176000C0000BD4DBF8001041F08051CBF8001022
:10177000DBF80000012700F0805000906B4E3068CD
:10178000C00510D4306840F480703060FFF792FDDF
:10179000009005E0FFF78EFD0099401A022850D80E
:1017A0003068C005F6D55E4EA0686C3601280FD0B3
:1017B0000528306810D020F001003060306820F03B
:1017C00004003060A068B8B1FFF774FD00900FE02E
:1017D000306840F00100F4E740F004003060F7E7C3
:1017E000FFF768FD0099411A41F28830814266D8BE
:1017F00030688007F4D50EE0FFF75CFD009007E04D
:10180000FFF758FD0099411A41F28830814256D8BD
:1018100030688007F4D42FB1DBF8001021F080513C
:10182000CBF80010A069C8B33D49091D0968C1F390
:10183000810102294AD00228504607D0C8F860002A
:1018400000E03CE0FFF736FD04463BE04746C8F8C1
:101850006000FFF72FFD064605E000BFFFF72AFDF9
:10186000801B02282BD828688001F7D4D4E907010F
:101870000843A16A2E4A490802EB0141626A41EA23
:101880008211084394F82C1040EA0161C9F8001055
:1018900001203866FFF70EFD044606E03EE000BF7B
:1018A000FFF708FD001B022809D828688001F7D53A
:1018B00034E000BFFFF7FEFC001B022802D9032022
:1018C000BDE8F88F28688001F4D427E00128F7D01C
:1018D000D9F80000E26900F4800191421CD1226A2B
:1018E00000F03F01914217D147F6C071626A014092
:1018F000B1EB821F10D1A26A4FF0FF3300F44031E8
:1019000003EB5202B1EB024F06D194F82C1000F019
:101910007060B0EB016F01D00120D1E70020CFE76C
:101920000438024000004742800E474200700040E9
:101930000000FFFF7047000038B5016804464A68A0
:101940008868C043430606D5C30704D1D3435B066A
:1019500001D4216C05E0830708D4D3431B0605D4CA
:10196000616C01B02046BDE830400847830603D5CE
:10197000430601D5C30551D4D3439B064ED4430639
:101980000AD494F85130032B49D0636D43F004031B
:101990006365CB688B680093830609D4636D43F05D
:1019A000010363658B6800930B6823F040030B60B1
:1019B000C00506D4606D40F008006065206880684E
:1019C0000090606D002829D02068416821F0E00176
:1019D0004160012084F85100900701D4D00722D043
:1019E0002068416821F003014160114DE06C40B175
:1019F0000565E06CFFF7C5F918B1606D40F0400077
:101A00006065A06C002809D00565A06CFFF7B9F9E6
:101A1000002803D0606D40F04000606538BDC868A4
:101A20008868009038BD2046FFF784FF38BD00006D
:101A3000992C000870B5040009D0606A002540B1F7
:101A400025616561A56294F8510040B10CE0012068
:101A500070BD6068B0F5827FF4D0E561F2E784F88C
:101A60005050204600F044F8022084F851002068CD
:101A7000016821F040010160A088218900F4827092
:101A800001F404410843A18901F400610843217C69
:101A900001F002010843217D01F001010843218B7F
:101AA00001F400710843217F01F03801084394F8E4
:101AB000201001F080010843218D01F400510843FA
:101AC00021680860A069042101EA104094F82410FC
:101AD00001F010010843216848602068C16921F4C1
:101AE0000061C1616565012084F85100002070BD6E
:101AF0002DE9F04186B0064614216846FEF7CFFD79
:101B00002F493068884258D12E480024016841F49A
:101B100080510160006800F4805005902948143815
:101B2000016841F0010101600068694600F00100B0
:101B30000590E02000900220CDE9010403200390ED
:101B4000052004902048FFF7B3FA214D1F484FF0BD
:101B5000C0672860C5E901744FF48068C5E903488F
:101B60006C61AC61EC612C6228466C62FFF7ECF9A9
:101B700008B1FEF7D4FFF564AE63154D1348603528
:101B80004830E5E802074020A5E81101104845F873
:101B900014496030AC61EC612C626C62FFF7D4F9DF
:101BA00008B1FEF7BCFFB564002211462320AE63E6
:101BB000FFF7EEFB2320FFF7DDFB06B0BDE8F08169
:101BC00000300140443802400000024010640240EE
:101BD000980200202DE9F041044600268068042385
:101BE00018B96568B5F5827F0ED094F85050012D74
:101BF00013D0012784F8507094F851C00025BCF12F
:101C0000010F0DD0022654E084F851302046BDE883
:101C1000F04113460A4600F0B7B80220BDE8F08153
:101C200071B16AB184F851306565A163A287E2871A
:101C300025646564A586E586B0F5004F02D00BE00B
:101C4000012636E02068016821F04001016020682B
:101C5000016821F480410160E16C18480864E16C7E
:101C60001748C863E16C1748C864E06C0565E38FEA
:101C70002168A26B0C31E06CFFF7D0F938B1606DD0
:101C800040F010006065012684F8517011E0206872
:101C90000168490603D4016841F0400101602068F1
:101CA000416841F0200141602068416841F0010134
:101CB000416084F850503046B0E70000CB2C00085B
:101CC000E92C0008A92C0008F0B40024856813460C
:101CD00004261DB94268B2F5827F0DD090F85020DD
:101CE000012A0FD0012280F8502090F85170002274
:101CF000012F0AD0022436E080F85160F0BC0A4679
:101D000000F0D4B80220F0BC704771B16BB180F81C
:101D10005160426581638387C38702638286C2867E
:101D20004264C16819B1124902E001241BE0114963
:101D30000164B5F5004F09D101680B6823F0400339
:101D40000B6001680B6823F480430B6001684B68EB
:101D500043F060034B6001680B685B0603D40B68BB
:101D600043F040030B6080F850202046CBE7000092
:101D7000C52E0008E52E0008014901204870704773
:101D8000F8010020704700002DE9F041044690F86A
:101D90005000002601280DD0012784F8507094F8D7
:101DA00051000025D4F804C001280FD0BCF5827F73
:101DB0000AD102E00220BDE8F081D4F808C0BCF1ED
:101DC000000F01D1042801D0022660E049B342B3DC
:101DD0003BB394F85100042802D0052084F8510048
:101DE00065652163A386E386A263A387E3872564F1
:101DF000656494F85100042815D0E16C2648086405
:101E00002648E16CC863E16C2548C864E06C056550
:101E1000E38F2168A26B0C31E06CFFF7FFF8E0B9AB
:101E200006E0012633E0E16C1E4808641E48E8E73E
:101E30002068416841F001014160A06C0564A06C1C
:101E4000C563A06CC564A06C0565E38E2268216B38
:101E50000C32A06CFFF7E2F838B1606D40F0100072
:101E60006065012684F8517011E020680168490618
:101E700003D4016841F0400101602068416841F0ED
:101E8000200141602068416841F00201416084F80E
:101E9000505030468FE70000DF2C0008B72D0008B7
:101EA000A92C0008CB2C0008E92C0008F0B590F80C
:101EB00050500024012D0CD0012580F8505090F88E
:101EC000515000264768012D0BD0B7F5827F06D10F
:101ED00001E00220F0BD87680FB9042D01D0022473
:101EE00029E0A9B1A2B19BB190F85150042D02D0C4
:101EF000052580F85150466501638386C386826359
:101F00008387C387C16829B10D4901640D4904E085
:101F1000012410E00C4901640C49416401684A68DD
:101F200042F0E0024A6001680A68520603D40A6877
:101F300042F040020A6080F850602046F0BD000088
:101F4000812A0008E12A0008B12A0008112B0008A4
:101F50002DE9F041044690F850000026012809D0F0
:101F6000012784F8507094F851000025012804D00E
:101F700002264EE00220BDE8F08189B182B1032043
:101F800084F8510065652163A286E286A5636564D5
:101F90002564A587E587A068B0F5004F02D00BE067
:101FA000012636E02068016821F0400101602068C8
:101FB000016841F480410160A16C18480864A16C7B
:101FC0001748C863A16C1748C864A06C0565E38E08
:101FD0002268216B0C32A06CFFF720F838B1606DDD
:101FE00040F010006065012684F8517011E020680F
:101FF0000168490603D4016841F04001016020688E
:10200000416841F0200141602068416841F00201CF
:10201000416084F850503046ADE70000D52C0008F0
:10202000532D0008A92C000830B590F8503000243A
:10203000012B0BD0012380F85030002341B13AB17D
:1020400090F85150012D05D002242FE0022030BD20
:1020500001242BE0032580F85150436501638286FB
:10206000C28683638387C3870364C16809B111494A
:1020700000E0114941648168B1F5004F09D1016860
:102080000A6822F040020A6001680A6842F480424D
:102090000A6001684A6842F0A0024A6001680A6862
:1020A000520603D40A6842F040020A6080F85030B9
:1020B000204630BD052F0008252F000801490120CA
:1020C00008707047F80100207047000001490120A6
:1020D00048607047F8010020704710B5401EB0F10D
:1020E000807F01D3012010BD4FF0E02460610F21FB
:1020F000601701F091FC0020A06107202061002002
:1021000010BD704770470000F8B5016804460868C4
:10211000CA684B6910F00F0F4FF0000559D003F05B
:10212000010602F49077374365D0C10705D0D10589
:1021300003D5216C41F001012164410705D5D90780
:1021400003D0216C41F002012164810705D5D90734
:1021500003D0216C41F004012164010707D502F08E
:102160002001314303D0216C41F008012164216C2E
:1021700000293AD0800604D5900602D5204601F009
:10218000E0FA20684069216CC0F38010090700D490
:1021900060B3204601F0AEFA20684069400621D5C0
:1021A0002068143050E8001F21F0400140E8001280
:1021B000002AF5D1A06BA8B16C490165A06BFEF7B0
:1021C000E0FD002811D0A06B016D01B0BDE8F0402A
:1021D000084783060FD593060DD52046BDE8F84085
:1021E00001F0AFBA2046FFF78DFFF8BD2046FFF79C
:1021F00089FF2564F8BD266B2023012E79D1C60600
:1022000077D5D60675D508684868009048694006B5
:1022100040D5A16B086840680004000CEAD0A28D8C
:102220008242E7D9E085C869B0F5807F2DD020686B
:102230000C3050E8001F21F4807140E80012002AA1
:10224000F5D12068143050E8001F21F0010140E86A
:102250000012002AF5D12068143050E8001F21F048
:10226000400140E80012002AF5D184F83E30256391
:1022700020680C3050E8001F21F0100140E80012E7
:10228000002AF5D1A06BFEF733FDA08DE18D401A39
:1022900081B229E0A08DE18D401A81B2E08D002845
:1022A000A8D00029A6D020680C3050E8002F22F4D6
:1022B000907240E80026002EF5D12068143050E8D6
:1022C000002F22F0010240E80026002EF5D184F80C
:1022D0003E30256320680C3050E8002F22F01002B9
:1022E00040E80023002BF5D12046FFF70AFFF8BD98
:1022F000FFE705062BD5150629D594F83D002128C2
:10230000F5D1A068B0F5805F01D12069B0B1206A35
:10231000411C2162216800784860E08C401E000466
:10232000000CE084E3D12068C16821F08001C16025
:102330002068C16841F04001C160D8E7206A008888
:10234000C0F308004860206A801C2062E5E7400670
:10235000CDD55006CBD5CA68204622F04002CA60CF
:1023600084F83D3000F0C0F8C1E70000E536000811
:1023700070B5040004D094F83D00002510B106E0CB
:10238000012070BD84F83C50204600F023F8242042
:1023900084F83D002068C16821F40051C1602046E6
:1023A00001F030FA2068016921F490410161206850
:1023B000416921F02A0141612068C16841F400515E
:1023C000C1602564202084F83D0084F83E00002090
:1023D00070BD000010B586B0044614216846FEF7B3
:1023E0005EF918492068884229D1174800210268FF
:1023F00042F010020260006800F0100005901248E0
:102400001438026842F001020260006800F0010026
:1024100005904FF4C06000900220CDE90101032037
:1024200003900720049069460848FEF741FE002209
:1024300011462520FEF7ACFF2520FEF79BFF06B0D6
:1024400010BD00000010014044380240000002406E
:1024500090F83E30202B0ED159B152B190F83C305B
:10246000012B08D0012380F83C300023036301F0E6
:102470004FBA01207047022070470000084810B58D
:10248000406820B1064901228369491C98470449E4
:102490000122BDE81040491C0248FFF7D9BF0000E7
:1024A0001C0200205803002090F83D30202B18D14A
:1024B000A9B1A2B190F83C30012B12D00162828404
:1024C000C28400210164212280F83D2080F83C1064
:1024D0000068C16841F08001C160002070470120A0
:1024E00070470220704700000149012008707047C2
:1024F0001C020020FEE700000D4808B5016841F409
:10250000800101600068002200F480000090114604
:102510003820FEF73DFF3820FEF72CFF0022114641
:102520003B20FEF735FFBDE808403B20FEF722BF09
:10253000303802402DE9F04F87B014216846FEF78D
:10254000AEF83F480024016841F0100101600168C5
:1025500001F010010591016841F00401016001687A
:1025600001F004010591016841F02001016001685A
:1025700001F020010591016841F0800101600168CE
:1025800001F080010591016841F0010101600168DD
:1025900001F001010591016841F008010160016845
:1025A00001F008010591016841F0400101600068F7
:1025B000DFF8908000F04000059001224021404665
:1025C000FEF773FE0122DFF880905602314648463E
:1025D000FEF76BFEDFF874A0012208215046FEF7DB
:1025E00064FE0122DFF868B0D70339465846FEF78B
:1025F0005CFE402000900125CDE90154694640462B
:102600000394FEF755FD0096CDE90154694648460E
:102610000394FEF74DFD08200090CDE90154694672
:1026200050460394FEF744FD0097CDE901546946F6
:1026300058460394FEF73CFD07B0BDE8F08F00005C
:10264000303802400010024000140240000C0240EA
:1026500000180240104810B50E4901604FF4827115
:10266000416000218160C1604FF400720161C0E9E6
:1026700005121822C0E90721416281620A21C16264
:10268000FFF7D8F9002803D0BDE81040FEF747BA9D
:1026900010BD000000300140400200200C4810B581
:1026A0000A4901604FF4E1314160002181600C2250
:1026B000C160C0E904128161C161FFF759FE0028C1
:1026C00003D0BDE81040FEF72ABA10BD001001404B
:1026D00058030020FEE7FEE770470000F8B51D48EC
:1026E000FEF720FA04006FF015050DD06269002195
:1026F0009047042001F062F9060007D062690121C9
:10270000204690473046F8BD2846F8BD002000908E
:102710006F460426104800F0E5F830B103693246F0
:10272000394698470546042804D0626901212046AD
:102730009047E9E762690121204690479DF8010032
:102740009DF80210000440EA01209DF803100843A0
:10275000F8BD0000CC320008B839000810B50400FC
:102760006FF015010AD0206840B12169FDF775FFAF
:102770002068E060A0600020606110BD084610BDC8
:1027800010B504006FF015010ED0206860B1FDF7A0
:10279000C6FD2046FDF7C3FD00202061606160603A
:1027A0002060A060E06010BD084610BD70B5050057
:1027B0001DD02C20FDF784FD040018D0206808B13E
:1027C000FDF7ADFD2846FDF77BFD4119C4E9000189
:1027D000A060C4E90305002060610648A0610648C6
:1027E000E0610648206206486062204670BD002015
:1027F00070BD00006D280008052800085D2700084E
:10280000812700082DE9F0410400154688466FF045
:1028100015001DD0216800291AD06069B0B1A84206
:1028200000D20546D4E901014A19904212D2461A53
:10283000AF1B32464046FDF7CBFE08EB06003A469A
:102840002168FDF7C5FE2068384409E06FF00B00F1
:10285000BDE8F0812A464046FDF7BAFEA06828444C
:10286000A0606069401B60612846F1E72DE9F041F6
:102870000400154688466FF015002BD02169A94247
:1028800028D32168002925D0E06861684219914267
:102890000ED20E1AAF1B32464146FDF799FE08EBE9
:1028A00006013A462068FDF793FE2068384405E0AB
:1028B0002A464146FDF78CFEE0682844E060D4E9F2
:1028C00004102844814203D2E0686161A06000E006
:1028D00060612846BDE8F0810148FFF72DB800008F
:1028E0004002002070B505000CD00748046807E0DE
:1028F00029462068FDF75AFE08B1204670BDA4693C
:10290000002CF5D1002070BD1400002030B1054925
:102910000A6802B182610860002070476FF01500FC
:10292000704700001400002070B500F017F804464E
:1029300000F010F80546002308E000BFC3EBC30019
:1029400005EB8000FFF7E2FF5B1CDBB2A342F5DB87
:1029500070BD000000487047000200200120704751
:1029600008B1002070476FF01500704770B56FF028
:10297000150328B121B10079144601281AD101E0CC
:10298000184670BD6FF00405012A0CD092B14FF4C7
:102990008030824200D9024692B20748FFF71AF906
:1029A00030B1284670BD01220348FFF78DF9F7E7E3
:1029B00000F0D4FF204670BD4002002070B56FF0DB
:1029C000150328B121B10079144601281AD101E07C
:1029D000184670BD6FF00405012A0CD092B14FF477
:1029E0008030824200D9024692B20748FFF7B0FA1F
:1029F00030B1284670BD01220348FFF715FBF7E709
:102A000000F0B6FF204670BD400200202DE9F047DF
:102A10000F461C4616466FF0150128B126B1007905
:102A20009946012821D102E00846BDE8F0876FF001
:102A3000040A4FF48030012C0ED08046ACB14546DC
:102A4000AC4200D82546ABB2324639460B48FFF7B8
:102A50009BF960B15046E8E7012339460748FFF784
:102A600025FA0028F6D100F08DFF4846DDE700F09A
:102A700089FF641B2E442F44E0E700004002002041
:102A80000168C968826B1180816B891C8163C18F69
:102A9000491EC187C18F002909D101684A6822F007
:102AA00040024A60C18E002901D100F049B8704748
:102AB0000168097B826B1170816B491C8163C18F36
:102AC000491EC187C18F002909D101684A6822F0D7
:102AD00060024A60C18E002901D100F031B8704710
:102AE000016B02680988D160016B891C0163C18E8A
:102AF000491EC186C18E002909D101684A6822F0A9
:102B000080024A60C18F002901D100F019B87047D6
:102B1000016B026809781173016B491C0163C18E56
:102B2000491EC186C18E002909D101684A6822F078
:102B300080024A60C18F002901D100F001B87047BE
:102B400038B50446214845F6C0510068B0FBF1F0A5
:102B5000642148430090FEF7ADFB024620684168BF
:102B600021F020014160009888B1401E009020684B
:102B700080688007F7D56421204600F077F918B106
:102B8000606D40F020006065A06828B108E0606DCD
:102B900040F020006065EEE72068C1688068009022
:102BA000616D012029B184F851002046FEF7C2FE74
:102BB00038BD94F8511084F851000429204602D001
:102BC000FFF784FA38BDFFF7D7F838BD0C000020B6
:102BD00038B504460068416821F060014160FEF7A5
:102BE00069FB02466421204600F012F918B1606DBD
:102BF00040F020006065A06818B92068C16880684E
:102C00000090012084F85100606D0028204602D019
:102C1000FEF790FE38BDFFF7AFF838BD38B5044673
:102C20001C4845F6C0510068B0FBF1F064214843F0
:102C30000090FEF73FFB024620680099A1B1491EB3
:102C4000009181688907F8D5416821F0A0014160B1
:102C50006421204600F00AF918B1606D40F02000B0
:102C60006065A06828B108E0616D41F020016165F0
:102C7000EAE72068C16880680090012084F851006C
:102C8000606D0028204602D0FEF754FE38BDFFF7E5
:102C900015FA38BD0C00002010B5806B0021C187EB
:102CA000C186FEF747FE10BD10B5806B01684A680B
:102CB00022F003024A60416D41F01001416501219B
:102CC00080F85110FEF736FE10BD10B5806BFFF78F
:102CD00059F810BD10B5806BFFF7F6F910BD10B5AF
:102CE000806BFFF7F9F910BD70B50546846BFEF7F0
:102CF000E1FA024628680068C00526D420684168C9
:102D000021F020014160A06818B96068B0F5827FA9
:102D100016D02068416821F00101416064212046FD
:102D200000F076F808B1202060650020E0870120DF
:102D300084F85100606D40B12046FEF7FBFD70BD88
:102D40002068416821F00301E7E72046FFF714F807
:102D500070BD38B50546846BFEF7ACFA02462868AC
:102D60000068C00523D42068416821F0200141603B
:102D70002068416821F0020141606421204600F092
:102D800075F818B1606D40F020006065A068002102
:102D900018B92068C26880680090E186012084F834
:102DA0005100606D18B12046FEF7C4FD38BD2046C5
:102DB000FFF784F938BD70B50546846BFEF77AFAE3
:102DC000024628680068C0051ED42068416821F0CA
:102DD000200141606421204600F048F818B1606D80
:102DE00040F0200060652068416821F003014160E7
:102DF0000020E086E087012084F85100606D18B162
:102E00002046FEF797FD70BD2046FFF75FF970BDC5
:102E1000F8B5044640684FF48273984221D1A06807
:102E20004FF48065B0F5004F01D0A8420AD1206868
:102E3000066826F0400606606068984211D1A068D6
:102E4000A8420ED000920B4600228021204600F0BE
:102E500079F8002804D0606D40F020006065032000
:102E6000F8BD00920B4600220121EFE738B5044679
:102E70001248134B0068B0FBF3F04FF47A735843D9
:102E800000906068B0F5827F0DD10B460092002261
:102E90008021204600F056F870B1606D40F02000AF
:102EA0006065032038BD009830B1401E0090206856
:102EB0008068C0430006F6D5002038BD0C00002015
:102EC00000366E010168C968826B1180816B891CB4
:102ED0008163C18F491EC187C18F002901D1FFF7CE
:102EE00077BE70470168097B826B1170816B491C4A
:102EF0008163C18F491EC187C18F002901D1FFF7AE
:102F000067BE7047016B02680988D160016B891C3C
:102F10000163C18E491EC186C18E002901D1FFF710
:102F20007DBE7047016B026809781173016B491C03
:102F30000163C18E491EC186C18E002901D1FFF7F0
:102F40006DBE70472DE9F8431E46914688460446FB
:102F5000089DFEF7AFF9401B351AFEF7ABF907469F
:102F600025480068C0F3CB30684338E0701C37D088
:102F7000FEF7A0F9C01BA84203D215B1009860B3B8
:102F80002CE02068416821F0E00141606068B0F504
:102F9000827F0BD1A068B0F5004F02D0B0F5806FF2
:102FA00004D12068016821F040010160A06AB0F5F9
:102FB000005F09D12068016821F400510160206898
:102FC000016841F400510160012084F851000020A3
:102FD00084F850000320BDE8F8830025401E0090CF
:102FE0002068816838EA010004D000214945BDD13C
:102FF0000020F0E70121F9E70C00002070B50AA0DD
:10300000FDF790FD04000CD0626900219047282054
:1030100000F0D4FC0546626901212046904728460D
:1030200070BD6FF0150070BD4C4344204353000049
:1030300070B50AA0FDF776FD04000CD0626900218E
:103040009047292000F0BAFC05466269012120461C
:103050009047284670BD6FF0150070BD4C4344206A
:10306000435300002DE9F04105006FF0150618D01C
:10307000686890B116A0FDF755FD040011D0626993
:10308000002190472C2000F099FC6FF0040750B10C
:10309000626901212046904712E06FF00B00BDE805
:1030A000F0813046FBE7288A81B2686800F074FC42
:1030B000064662690121204690472869B04201D046
:1030C0003846ECE7314604A0FDF7C8F9E9E700000F
:1030D0004C43442043530000535437373839564645
:1030E0006C7573682020577269746544617461203F
:1030F00025640D0A000000002DE9F8435FEA00088E
:103100006FF015044AD05DA0FDF70CFD002842D0F9
:103110005CA0FDF707FD002840D05DA0FDF702FD93
:1031200000283BD05DA0FDF7FDFC426900219047DF
:103130005DA0FFF7D7FB002830D0FFF7CFFA01469C
:103140005AA0FDF78BF95EA0FDF7ECFC050028D036
:103150006A6900219047962000F0C9FC6A69012144
:1031600028469047052000F0C2FC002657A0FDF736
:10317000D9FC07000CD07A6900219047112000F09B
:103180001DFC05467A6901213846904765B12C46F9
:10319000214650A06DE055A0FDF760F92046BDE83E
:1031A000F883214655A064E0052000F0A0FC47A06C
:1031B000FDF7B8FC07000ED07A6900219047132074
:1031C00000F0FCFB05467A6901213846904725B19D
:1031D00029464FA014E02546FAE73CA0FDF7A2FCE3
:1031E000070011D07A6900219047202000F0E6FB0B
:1031F00005467A690121384690473DB129464BA0E2
:10320000FDF72CF92846CAE72546F7E78DF8006058
:103210002EA0FDF787FC050019D06A6900219047B0
:10322000362000F0CBFB30B16A6901212846904777
:103230006FF004040BE00121684600F0ADFB04468A
:103240006A69012128469047012C03D014B1214618
:103250003DA00EE0102000F019F9040002D0014654
:1032600041A006E04046FFF7E3FE040004D001461B
:1032700044A0FDF7F3F891E7002090E74C43442089
:10328000435300004C434420704443580000000066
:103290004C43442070525354000000004C434420DF
:1032A000704241434B00000053504900737437375C
:1032B000383920696420697320307825580D0A0058
:1032C0004C43442070525354000000004C434420AF
:1032D00043530000536C6565704F757420666169D7
:1032E0006C65642025640D0A0000000070435320C3
:1032F0006973204E554C4C0D0A000000485752652A
:10330000736574206661696C65642025640D0A002C
:103310005365744E6F726D616C4D6F64654F4E20D6
:103320006661696C65642025640D0A005365744903
:103330006E76657273696F6E4F4646206661696C82
:1033400065642025640D0A005365744D656D446104
:103350007461416464724374726C206661696C6567
:10336000642025640D0A0000536574506978656C0B
:10337000466F726D6174206661696C6564202564B6
:103380000D0A000053543737383956446973706C4E
:1033900061794F4E206661696C65642025640D0A71
:1033A000000000002DE9FC4705461E4617468846EA
:1033B0002BA0DDF82890FDF7B5FB040009D0626969
:1033C000002190472A2000F0F9FA6FF0040A50BB60
:1033D00003E06FF01500BDE8FC874FEA18208DF878
:1033E00000008DF80180300A8DF802008DF803602E
:1033F0000421684600F0D0FA042814D12B2000F0F4
:10340000DDFA80B9380A8DF804008DF805704FEAAE
:1034100019208DF806008DF80790042101A800F00E
:10342000BBFA042805D06269012120469047504626
:10343000D1E76269012120469047A6EB080080B2DF
:10344000A9EB0701288189B269814843A9894843CA
:10345000C11700EB5170C01028610020BBE70000CD
:103460004C4344204353000010B540B144684CB174
:10347000008902FB001024F81030002010BD6FF00E
:10348000150010BD6FF00B0010BD704738B5054634
:103490001948FDF747FB04000DD0626900219047F1
:1034A0003A2000F08BFA48B162690121204690472A
:1034B0006FF0040038BD6FF0150038BD55208DF851
:1034C00000000C2D04D0102D03D0122D10D002E0DE
:1034D00053208DF800000121684600F05DFA054692
:1034E0006269012120469047012D03D0284638BD4E
:1034F0006620EEE7002038BDCC320008FDF7E0BEC4
:1035000030B593B030216846FDF7C9F814210CA8F6
:10351000FDF7C5F81D480025016841F080510160A4
:10352000006800F0805011901948016841F4804112
:1035300001600068022400F4804011900120009096
:10354000000401908001CDE9064008AA0420A821CA
:1035500082E813000B906846FEF736F808B172B6A1
:10356000FEE70CA90F2081E831004FF4A0500F9026
:103570004FF48050109005210CA8FDF73BFF002868
:1035800001D072B6FEE713B030BD000040380240F3
:10359000007000400248016841F47001016070470A
:1035A00088ED00E070B505000CD00748046807E01E
:1035B00029462068FCF7FAFF08B1204670BD64690F
:1035C000002CF5D1002070BD1800002030B1054955
:1035D0000A6802B142610860002070476FF0150070
:1035E000704700001800002070B500F017F804467E
:1035F00000F010F80546002308E000BF03EB43008D
:1036000005EBC000FFF7E2FF5B1CDBB2A342F5DB7A
:1036100070BD000000487047240200200120704760
:1036200010B528B1017902291AD2DFE801F0190496
:103630006FF0150010BD00680AA1FCF7B7FF78B164
:10364000FF20FFF7B3F80A496FF00404486028B17F
:103650000122491C0748FEF7FBFE08B1204610BDB9
:10366000002010BD554152542044454255470000AA
:103670001C020020580300206FF0150330B129B15F
:103680000079022809D2DFE800F0080318467047E5
:103690000348406808B1C36918470020704700001C
:1036A0001C02002010B56FF0150330B129B100796C
:1036B000022811D2DFE800F01003184610BD0748B9
:1036C000FEF7F2FE10B16FF0040010BD044801785F
:1036D0000129FCD100210170002010BD58030020F9
:1036E0001C02002010B5806B0021C185C184FEF74B
:1036F00009FD10BD01680C3151E8002F22F49072D1
:1037000041E80023002BF5D10168143151E8002F66
:1037100022F0010241E80023002BF5D1016B0129C1
:1037200009D101680C3151E8002F22F0100241E864
:103730000023002BF5D1202180F83E1000210163E9
:10374000704708B590F83E10222901D0022008BD2C
:1037500082684FF480539A4201D1016921B1816A94
:103760009A421BD04AB10AE00268816A5268C2F3E9
:1037700008020A80816A891C08E0026972B1026845
:10378000526802F07F020A70816A491C8162C18D11
:10379000491E0904090CC18503D019E0026852686A
:1037A000F1E70168CA6822F02002CA600168CA68AD
:1037B00022F48072CA6001684A6922F001024A61FB
:1037C000202180F83E10016B012903D0FEF756FE40
:1037D000002008BD0021016301680C3151E8002F71
:1037E00022F0100241E80023002BF5D101680A689D
:1037F000D20602D50A6849680091818DFEF781FCE6
:10380000E6E7000070B5044600680169E26821F44B
:103810004051114301612169A068E269084361696F
:10382000114308432168CA6849F20C639A43024372
:10383000CA6020684169A26921F440711143416165
:1038400031492068884202D03049884202D1FDF7D0
:103850007BFE01E0FDF768FEE26900231921642583
:103860003226B2F5004F626828D0A0FB0101930F09
:103870009200FCF77BFD0146B0FBF5F06FF01802FB
:10388000504301EB800006EB0010B0FBF5F000F0B8
:10389000F002B1FBF5F002EB0012B1FBF5F06FF0B6
:1038A0001803584301EB800006EB0010B0FBF5F065
:1038B00000F00F0021681044886070BDA0FB01017A
:1038C00092185B41FCF752FD0146B0FBF5F0020196
:1038D000B1FBF5F06FF01803584301EB800006EBE5
:1038E000C000B0FBF5F000F0F80002EB4002B1FBC5
:1038F000F5F0584301EB800006EBC000B0FBF5F09B
:1039000000F00700D6E7000000100140001401405D
:1039100081628285C28500210164222280F83E20D6
:1039200080F83C10016921B10168CA6842F48072D4
:10393000CA6001684A6942F001024A610068C168D0
:1039400041F02001C1600020704700000148FEF7EF
:10395000DBBB000058030020FEE70000034841786D
:103960000029FCD00021417070470000F8010020C0
:10397000034801780029FCD0002101707047000045
:10398000F8010020034841680029FDD00021416072
:1039900070470000F801002070B505460C4606A0EF
:1039A000FEF7A0FF28B122462946C368BDE8704053
:1039B00018476FF0150070BD53504900F1B512A0C3
:1039C000FDF7B0F804006FF0150617D011A0FEF750
:1039D00089FF050012D06269002120469047EB68FC
:1039E0000122694628469847012862694FF0010183
:1039F000204605D090476FF00400F8BD3046F8BD72
:103A000090470020F8BD00004C43442070444358C8
:103A100000000000535049000907090E002804DB8C
:103A200000F1E02080F80014704700F00F0000F172
:103A3000E02080F8141D7047F8B5FEF775FFFDF71C
:103A400093F8FFF7D1FDFDF74FF9040027D0616926
:103A50008847002823D11248606032200090034636
:103A60000022256A11462046A847002642F2444714
:103A70000025D4F824C0AAB2B1B23B462046E047A4
:103A80006D1C322DF5D3761C322EF1D3A16A20465F
:103A90008847BDE8F8404FF47A7000F028B8F8BDC8
:103AA0009C03002013B507A0FFF77CFD002806D07B
:103AB000C368012269469847012801D000201CBD37
:103AC00000981CBD554152542044454255470000C2
:103AD000FDF7FEFBFFF714FDFEF72CFDFEF70CFDD6
:103AE000FEF7B8FDFEF7DAFDFFF7A6FFFEE770B5BB
:103AF0004FF0807504466E1E07E0AC4201D330469D
:103B000000E02046241AFDF7C1FA002CF5D170BD63
:103B10004FF04070E1EE100A7047000610160006E4
:103B20001016000000000000000001020304060758
:103B3000080900000000010203043031323334353B
:103B400036373839414243444546403058003031D9
:103B500032333435363738396162636465664030F4
:103B6000780000005354373738395600443100008C
:103B70004B310000443200004B320000443300005F
:103B80004B330000443400004B3400004C434420CD
:103B9000704241434B0000005732355136342043C8
:103BA000530000004C434420435300004C43442046
:103BB00070525354000000004C434420704443585A
:103BC000000000005350493100000000554152549C
:103BD0002044454255470000F83B00080000002003
:103BE00040020000C4010008C03C00084002002060
:103BF000481B00002002000832018210D324F41375
:103C0000643B420812F06B68012413F9301B083141
:103C10000413FD2F1408A533140869341B0865101C
:103C200001101AA43C295C112C0C02401D13990BA5
:103C300014082B0C1B081904416AB8201414024004
:103C40000A1002206AAC201A18200A1080206A8C00
:103C5000200D1110024040606A6C201A044019BD0A
:103C6000E920AA74200A102020AA7C201961E920EA
:103C7000AA84200911A06A7020112B024008292073
:103C8000415A4D209A78200A1102209A80200A1168
:103C900004209A88202911E9209A9820A9A0692057
:103CA000815AC4281361291B08BD041A6D04CB0D69
:103CB0002A245ACC241321361B08A5041A7904811E
:040000050800018965
:00000001FF
