:020000040800F2
:100000003007002031020008C91A0008AD190008A5
:10001000C51A0008A90700085523000800000000C1
:10002000000000000000000000000000A71C000805
:10003000AD07000800000000CD1A0008A91C000848
:100040004B0200084B0200084B0200084B0200085C
:100050004B0200084B0200084B0200084B0200084C
:100060004B0200084B0200084B0200084B0200083C
:100070004B0200084B0200084B0200084B0200082C
:100080004B0200084B0200084B0200084B0200081C
:100090004B0200084B0200084B0200084B0200080C
:1000A0004B0200084B0200084B0200084B020008FC
:1000B0004B0200084B0200084B0200084B020008EC
:1000C0004B0200084B0200084B0200084B020008DC
:1000D0004B0200082D2300084B0200084B020008C9
:1000E0004B0200084B0200084B0200084B020008BC
:1000F0004B0200084B0200084B0200084B020008AC
:100100004B0200084B0200084B0200084B0200089B
:100110004B0200084B0200084B0200084B0200088B
:100120004B0200084B0200084B0200084B0200087B
:100130004B0200084B0200084B0200084B0200086B
:100140004B0200084B0200084B0200084B0200085B
:100150004B0200084B0200084B0200084B0200084B
:100160004B0200084B0200084B0200084B0200083B
:100170004B0200084B0200084B0200080000000080
:100180004B0200084B02000800F002F800F040F8B3
:100190000AA090E8000C82448344AAF10107DA45E2
:1001A00001D100F035F8AFF2090EBAE80F0013F0F4
:1001B000010F18BFFB1A43F0010318471C2200006F
:1001C0003C220000103A24BF78C878C1FAD8520700
:1001D00024BF30C830C144BF04680C6070470000C1
:1001E0000023002400250026103A28BF78C1FBD840
:1001F000520728BF30C148BF0B6070471FB502F0DF
:10020000D3F89DE8030000F0BFF91FBD10B510BD85
:1002100000F048FA1146FFF7F1FF02F0B9F800F0DC
:1002200066FA03B4FFF7F2FF03BC00F097FA000090
:100230000948804709480047FEE7FEE7FEE7FEE77A
:10024000FEE7FEE7FEE7FEE7FEE7FEE704480549B6
:10025000054A064B70470000651D0008890100082B
:100260003001002030070020300300203003002040
:1002700070B5064600F06CF9056806F10B0020F039
:100280000704B4429CBF002070BD2B466A68BAB117
:100290001068A04210D304F1080188423CBF5068A6
:1002A000586007D35168101941601168091B01603B
:1002B00058601460101D70BD13465268002AE7D1C3
:1002C0002146284600F04CF90028DED170BD70B5FB
:1002D0000446051F00F03CF90068002C14BF446878
:1002E00070BD002C18BFAC423CBF20466468F8D3F8
:1002F00001680A18AA4218BF456003D12A6805465A
:100300001144016028684119A1421CBF6C6070BD96
:100310006168696021680844286070BD53EA020C76
:1003200000F069802DE9F04B4FF00006002B1FBF55
:10033000B3FA83F503FA05F424FA05F65E4012BF1A
:100340001643B2FA82F502FA05F4C5F120051EBF84
:1003500022FA05FC44EA0C04203556EA044C4FEA24
:10036000144418BF641C4FF000084FF0000990427D
:1003700071EB030C39D3002919BFB1FA81F701FAE7
:1003800007F6B0FA80F700FA07F6C7F120071EBF9C
:1003900020FA07FC46EA0C062037B6FBF4FCA7EB74
:1003A0000507103F07F01F0BCBF120060CFA0BFBE3
:1003B0002CFA06F644BFB3460026202FA4BF5E46A3
:1003C0004FF0000B5BEA060C08BF4FF0010B19EB76
:1003D0000B09ABFB027C48EB0608C01B06FB02CCFA
:1003E0000BFB03CC71EB0C01C1E70B460246414607
:1003F0004846BDE8F08B13B54FF000004FF0000108
:10040000AFF30080BDE81C40704730B505460B4691
:100410002A4613F8014B12F8010B08B1A042F8D09C
:100420001CB1002802D06D1CF1E7284630BD032A1C
:1004300040F2308010F0030C00F0158011F8013B01
:10044000BCF1020F624498BF11F801CB00F8013BE8
:1004500038BF11F8013BA2F1040298BF00F801CBAC
:1004600038BF00F8013B11F0030300F0C380083AE5
:10047000C0F0088051F8043B083A51F804CBA0E8DA
:100480000810F5E7121D5CBF51F8043B40F8043B2F
:10049000AFF30080D20724BF11F8013B11F801CB64
:1004A00048BF11F8012B24BF00F8013B00F801CB35
:1004B00048BF00F8012B70474FF000020429C0F03C
:1004C000128010F0030C00F01B80CCF1040CBCF186
:1004D000020F18BF00F8012BA8BF20F8022BA1EBD8
:1004E0000C0100F00DB85FEAC17C24BF00F8012BBD
:1004F00000F8012B48BF00F8012B70474FF00002B5
:1005000000B5134694469646203922BFA0E80C5009
:10051000A0E80C50B1F12001BFF4F7AF090728BFE4
:10052000A0E80C5048BF0CC05DF804EB890028BF60
:1005300040F8042B08BF704748BF20F8022B11F089
:10054000804F18BF00F8012B704770477047704705
:1005500000487047D40000207047704770477047CC
:1005600038B504460A4600206946AFF300800028EB
:1005700008BF38BD02460099204600F071F80120FE
:1005800038BD012000F086B8F8B5AFF3008005460D
:1005900000200C46102000BF0646A819A0420DD925
:1005A000324669460020AFF30080070008BF00F024
:1005B00071F80098A04218BF0546C419FFF7C8FF9C
:1005C00005600746F01D20F007004619284600F098
:1005D0000AF8B44208BFF8BDA21B31463868BDE82E
:1005E000F84000F03DB800210160C0E901107047FB
:1005F0001020704710B5203AC0F00B80B1E81850B9
:10060000203AA0E81850B1E81850A0E81850BFF4FC
:10061000F5AF5FEA027C24BFB1E81850A0E818509B
:1006200044BF18C918C0BDE810405FEA827C24BFEF
:1006300051F8043B40F8043B08BF7047D20728BF7D
:1006400031F8023B48BF11F8012B28BF20F8023BCC
:1006500048BF00F8012B704700487047CC000020CD
:10066000034640688C46002818BF88423CBF0346BA
:100670004068F8D318681844884207D00CF103008A
:1006800020F00700001D411A521A0146081D0A6099
:10069000FFF71DBE10B500F039F8BDE8104000F0BE
:1006A0002FB870477546FFF7D7FFAE46050069467D
:1006B000534620F00700854618B020B5FFF7C6FD69
:1006C000BDE820404FF000064FF000074FF0000853
:1006D0004FF0000B21F00701AC46ACE8C009ACE8D4
:1006E000C009ACE8C009ACE8C0098D46704710B538
:1006F0000446AFF300802046BDE81040FFF791BDEF
:10070000002801D000F02AB87047000010B5012879
:1007100005D0002103A000F027F8012010BD09A199
:10072000F8E7000053494752544D454D3A204F7564
:1007300074206F662068656170206D656D6F7279D9
:10074000000000003A2048656170206D656D6F7291
:100750007920636F727275707465640001491820A6
:10076000ABBEFEE72600020070B505460C460A2027
:1007700000E06D1C00F011F835B128780028F8D1A0
:1007800002E0641C00F009F814B120780028F8D1C8
:10079000BDE870400A20AFF3008008B569468DF8C7
:1007A00000000320ABBE08BD00BFFEE7704772B675
:1007B00000BFFEE770B50446A56D00F065F906467A
:1007C00094F83500022808D08020606500BF002022
:1007D00084F8340000BF012070BD2068006820F05C
:1007E0001600216808602068406920F080002168B8
:1007F0004861206C08B9A06C28B12068006820F01E
:100800000800216808602068006820F00100216865
:10081000086010E000F038F9801B05280BD9202073
:100820006065032084F8350000BF002084F83400A0
:1008300000BF0320D0E72068006800F00100002816
:10084000E8D194F85C103F208840A860012084F82B
:10085000350000BF002084F8340000BF00BFBBE7B4
:10086000014691F83500022803D080204865012018
:100870007047052081F835000868006820F0010005
:100880000A6810600020F3E7F8B502460B46002521
:10089000002400200021D6E0012606FA01F51E689A
:1008A00006EA0504AC4274D11E7906F00306012E57
:1008B00004D01E7906F00306022E13D190684F0073
:1008C0000326BE40B0434F00DE68BE403043906018
:1008D000506801268E40B0431E79C6F300168E4044
:1008E000304350601E7906F00306032E09D0D0680D
:1008F0004F000326BE40B0434F009E68BE403043C9
:10090000D0601E7906F00306022E13D1CF0802F143
:10091000200656F827004E07F70E0F26BE40B043BC
:100920004F07FF0E1E69BE403043CF0802F120067C
:1009300046F8270010684F000326BE40B0431E79DA
:1009400006F003064F00BE40304310605E6806F4B8
:100950004036002E76D000BF002600963C4E36680A
:1009600046F480463A4F3E603E46366806F480467E
:10097000009600BF00BF374E8F0856F827008E073D
:10098000370F0F26BE40B043334EB24202D100268D
:1009900024E057E0314EB24201D101261EE0304E34
:1009A000B24201D1022619E02E4EB24201D10326F5
:1009B00014E02D4EB24201D104260FE02B4EB2427C
:1009C00001D105260AE02A4EB24201D1062605E0F1
:1009D000284EB24201D1072600E008268F073F0FBC
:1009E000BE4030431B4E8F0846F82700224E306829
:1009F000A0435E6806F4801606B120431E4E3060A8
:100A0000361D3068A0435E6806F4001606B1204328
:100A1000194E361D3060184E361F3068A0435E6890
:100A200006F4003606B12043134E361F3060361FE1
:100A30003068A0435E6806F4803606B120430E4E4F
:100A4000083E3060491C1029FFF426AFF8BD0000B5
:100A500044380240083801400000024000040240CF
:100A600000080240000C0240001002400014024046
:100A700000180240001C0240083C01400AB181619C
:100A800001E00B0483617047014800687047000073
:100A90000000002003480068034909780844014920
:100AA00008607047000000200800002010B50D48C5
:100AB000006840F400700B4908600846006840F484
:100AC000806008600846006840F480700860032079
:100AD00000F0A2F80F2000F007F800F02BF800203B
:100AE00010BD0000003C024070B504460E4800787E
:100AF0004FF47A71B1FBF0F00C490968B1FBF0F5E5
:100B0000284600F0D3FC08B1012070BD102C07D29C
:100B100000222146501E00F041F80548046001E023
:100B20000120F2E70020F0E7080000200C00002080
:100B30000400002008B500BF002000900E480068A7
:100B400040F480400C4908600846006800F480408A
:100B5000009000BF00BF00BF00200090081F006889
:100B600040F08050091F08600846006800F080507F
:100B7000009000BF00BF08BD44380240014608464F
:100B8000002809DB00F01F0301229A4043099B0063
:100B900003F1E023C3F8002100BF70472DE9F05FA7
:100BA00080460D461646002701F0D6FB074639461B
:100BB0002A46334601F00700C0F1070ABAF1040FD4
:100BC00002D94FF0040A01E0C0F1070AD14600F152
:100BD000040ABAF1070F02D24FF0000A01E0A0F1B7
:100BE000030AD4464FF0010A0AFA09FAAAF1010AE7
:100BF0000AEA020A0AFA0CFA4FF0010B0BFA0CFB94
:100C0000ABF1010B0BEA030B4AEA0B042146404609
:100C100001F0AAFBBDE8F09F00BF00F00702064B01
:100C200019684FF6FF031940044B0B4343EA0221B6
:100C3000014B196000BF70470CED00E00000FA05A1
:100C400070B504460D460CB9012070BD58480068C7
:100C500000F00700A84209D255490D700846006807
:100C600000F00700A84201D00120EEE7207800F054
:100C7000020002281DD1207800F00400042805D1CC
:100C80004C48006840F4E0504A490860207800F081
:100C90000800082805D14748006840F460404549ED
:100CA00008604448006820F0F000A168084341490A
:100CB0000860207800F00100A8B36068012807D11F
:100CC0003C4808380068C0F34040B8B90120BCE790
:100CD0006068022802D06068032807D135480838C8
:100CE0000068C0F3406048B90120AEE731480838D9
:100CF0000068C0F3400008B90120A6E72D4800684D
:100D000020F00300616808432A490860FFF7BCFE31
:100D1000064609E0FFF7B8FE801B41F288318842A1
:100D200002D9032091E707E02248006800F00C0098
:100D30006168B0EB810FEDD11D48006800F007003D
:100D4000A84209D91A490D700846006800F007004A
:100D5000A84201D0012078E7207800F004000428A0
:100D600007D11448006820F4E050E16808431149B5
:100D70000860207800F00800082808D10D480068B5
:100D800020F46040216940EAC1000A49086000F08F
:100D90003FF808490968C1F30311074A515CC8408C
:100DA0000649086006480068FFF79EFE00204CE7F1
:100DB000003C024008380240B22300080C0000202A
:100DC0000400002001480068704700000C0000206B
:100DD00000B5FFF7F7FF04490968C1F38221034A10
:100DE000515CC84000BD000008380240C223000822
:100DF00000B5FFF7E7FF04490968C1F34231034A30
:100E0000515CC84000BD000008380240C223000801
:100E10002DE9F047002400250026A146254800685A
:100E200000F00C0020B1042805D008283AD105E0D4
:100E3000DFF8849039E0DFF8849036E01D48001F29
:100E4000006800F03F041B48001F006800F48000A9
:100E500078B11A481749091F0968C1F38811A0FB26
:100E600001700146224600233846FFF757FA05462F
:100E70000EE011480F49091F0968C1F38811A0FB52
:100E800001700146224600233846FFF747FA05461F
:100E90000848001F0068C0F30140401C4600B5FB35
:100EA000F6F902E0DFF8109000BF00BF4846BDE849
:100EB000F0870000083802400024F40000127A0095
:100EC000F8B504460CB90120F8BD207800F0010007
:100ED000002874D0F948006800F00C0004280DD0F8
:100EE000F648006800F00C00082813D1F348001FF2
:100EF000006800F48000B0F5800F0BD1EF4808388F
:100F00000068C0F34040002859D06068002856D1DE
:100F10000120D9E700BF6068B0F5803F08D1E748FD
:100F20000838006840F48030E449083908601EE061
:100F30006068B0F5A02F0DD1E0480838006840F493
:100F40008020DE49083908600846006840F4803097
:100F500008600CE0D9480838006820F48030D74990
:100F6000083908600846006820F48020086000BF47
:100F7000606890B1FFF788FD054606E0FFF784FD45
:100F8000401B642801D903209EE7CC48083800683C
:100F9000C0F340400028F1D011E0FFF775FD054691
:100FA00006E0FFF771FD401B642801D903208BE7A1
:100FB000C24808380068C0F340400028F1D12078CA
:100FC00000F0020002285FD1BC48006800F00C006D
:100FD00058B1BA48006800F00C0008281CD1B74886
:100FE000001F006800F48000B0B9B44808380068F9
:100FF000C0F3400020B1E068012801D0012063E780
:10100000AE480838006820F0F800216940EAC100C5
:10101000AA490839086037E0E06800B30120A84910
:101020000860FFF731FD054606E0FFF72DFD401B88
:10103000022801D9032047E7A04808380068C0F318
:1010400040000028F1D09D480838006820F0F800E2
:10105000216940EAC10099490839086014E000207C
:1010600097490860FFF710FD054606E0FFF70CFD05
:10107000401B022801D9032026E790480838006861
:10108000C0F340000028F1D1207800F008000828C3
:101090002CD16069A8B101208A490860FFF7F4FCEF
:1010A000054606E0FFF7F0FC401B022801D90320AB
:1010B0000AE782486C300068C0F340000028F1D095
:1010C00014E000207F490860FFF7DEFC054606E0DB
:1010D000FFF7DAFC401B022801D90320F4E6774829
:1010E0006C300068C0F340000028F1D1207800F097
:1010F0000400042870D1002770483830006800F0E0
:10110000805090B900BF002000906C4838300068D3
:1011100040F080506949383108600846006800F0A6
:101120008050009000BF00BF01276748006800F4AE
:101130008070B0B96448006840F48070624908600B
:10114000FFF7A2FC054606E0FFF79EFC401B0228C5
:1011500001D90320B8E65C48006800F480700028DC
:10116000F2D000BFA068012808D154486830006858
:1011700040F001005149683108601DE0A068052871
:101180000DD14E486830006840F004004B4968318A
:1011900008600846006840F0010008600CE047481D
:1011A0006830006820F00100444968310860084652
:1011B000006820F00400086000BFA068A8B1FFF735
:1011C00063FC054609E0FFF75FFC401B41F28831F4
:1011D000884202D9032077E626E038486830006864
:1011E000C0F340000028EED013E0FFF74DFC0546A9
:1011F00008E0FFF749FC401B41F28831884201D9E1
:10120000032061E62D4868300068C0F340000028E4
:10121000EFD1012F07D129483830006820F08050E5
:1012200026493831086000BFA069002845D023480E
:10123000006800F00C0008285DD0A069022845D1A4
:1012400000201F490866FFF71FFC054606E0FFF770
:101250001BFC401B022801D9032035E6174808383B
:101260000068C0F340600028F1D1D4E907010843C9
:10127000616A40EA81110122A06AC2EB500041EA92
:1012800000412C20005D41EA00600C49091F086004
:1012900001200B490866FFF7F7FB054606E0FFF75C
:1012A000F3FB401B022801D903200DE60348083850
:1012B0000068C0F340600028F1D049E008380240DF
:1012C00000004742800E4742007000400020214944
:1012D0000866FFF7D9FB054606E0FFF7D5FB401B84
:1012E000022801D90320EFE51B480068C0F34060E5
:1012F0000028F2D12CE0A069012800D1E4E51648CD
:10130000001D0668A069012820D006F48001E0696C
:1013100081421BD106F03F01206A814216D147F677
:10132000C0703040616AB0EB811F0FD106F44031CC
:101330000122A06AC2EB5000B1EB004F06D106F0CB
:1013400070612C20005DB1EB006F01D00120BBE586
:101350000020B9E5000047420038024010B50446BD
:101360000CB9012010BD606A38B96068B0F5827FA1
:1013700000D105E00021E16102E00021216161610D
:101380000021A16294F8510028B9002084F850008F
:10139000204600F047F8022084F8510020680068D9
:1013A00020F0400021680860A08800F48270218944
:1013B00001F404410843A18901F400610843217C40
:1013C00001F002010843217D01F001010843218B56
:1013D00001F400710843217F01F038010843202106
:1013E000095D01F080010843218D01F4005108439B
:1013F000216808600421A06901EA104094F82410D3
:1014000001F010010843216848602068C06920F499
:1014100000602168C86100206065012084F85100E7
:1014200000209FE710B586B00446142101A8FFF7FD
:1014300065F81B49206888422FD100BF002000902A
:101440001848006840F48050164908600846006853
:1014500000F48050009000BF00BF00BF002000904B
:1014600010481438006840F001000E491439086033
:101470000846006800F00100009000BF00BFE020B7
:101480000190022002900020039003200490052088
:10149000059001A90448FFF7F7F906B010BD000058
:1014A00000300140443802400000024070B504465C
:1014B0002546681EB0F1807F01D301200FE0681E31
:1014C0004FF0E02148610F214FF0FF3000F04CFF5A
:1014D00000204FF0E021886107200861002070BDE6
:1014E000704770472DE9F84F04462068056820686A
:1014F000C668206847694FF00009CA4605F00F0921
:10150000B9F1000F0AD105F0200038B106F0200033
:1015100020B1204600F022FDBDE8F88FB9F1000FA0
:101520007CD007F0010018B906F49070002875D03F
:1015300005F0010030B106F4807018B1206C40F065
:101540000100206405F0040030B107F0010018B17B
:10155000206C40F00200206405F0020030B107F07A
:10156000010018B1206C40F00400206405F0080070
:1015700048B106F0200010B907F0010018B1206C46
:1015800040F008002064206C002846D005F02000C0
:1015900028B106F0200010B1204600F0DFFC2068E2
:1015A0004069C0F3801A206C00F0080010B9BAF14D
:1015B000000F2DD0204600F08BFC2068406900F021
:1015C0004000402820D100BF00BF2168143151E8FD
:1015D000001F21F040002168143141E80002002A78
:1015E000F3D100BFA06B50B17548A16B0865A06B2B
:1015F000FFF736F988B1A06B016D88470DE02046F2
:10160000FFF76FFF09E009E02046FFF76AFF04E0FB
:101610002046FFF766FF002020647DE7206B01284D
:1016200076D105F01000002872D006F010000028D6
:10163000FAD000BF00200090206800680090206869
:101640004068009000BF00BF2068406900F0400083
:1016500040285ED1A06B006840681FFA80F8B8F19E
:10166000000F54D0A08D404551DDA4F82E80A06B12
:10167000C069B0F5807F43D000BF00BF21680C3146
:1016800051E8001F21F4807021680C3141E800020C
:10169000002AF3D100BF00BF00BF2168143151E818
:1016A000001F21F001002168143141E80002002AE6
:1016B000F3D100BF00BF00BF2168143151E8001F03
:1016C00021F040002168143141E80002002AF3D1E2
:1016D00000BF202084F83E000020206300BF00BF30
:1016E00021680C3151E8001F21F0100021680C31F5
:1016F00041E80002002AF3D100BFA06BFFF75AF8BF
:10170000A08DE28D801A81B22046FFF7E9FE03E743
:1017100040E0A08DE18D401A1FFA80F8E08DC0B343
:10172000B8F1000F35D000BF00BF21680C3151E87F
:10173000001F21F4907021680C3141E80002002A5A
:10174000F3D100BF00BF00BF2168143151E8001F72
:1017500021F001002168143141E80002002AF3D190
:1017600000BF202084F83E000020206300BF00BF9F
:1017700021680C3151E8001F21F0100021680C3164
:1017800041E80002002AF3D100BF41462046FFF79E
:10179000A7FEC1E605F0800030B106F0800018B168
:1017A000204600F092FDB7E605F0400030B106F0AB
:1017B000400018B1204600F0C1FBADE600BFABE62B
:1017C000BD1E000810B504460CB9012010BDA0696B
:1017D00000B100E000BF94F83D0028B9002084F873
:1017E0003C00204600F028F8242084F83D002068C2
:1017F000C06820F400502168C860204600F02AFC30
:101800002068006920F490402168086120684069E0
:1018100020F02A00216848612068C06840F4005028
:101820002168C86000202064202084F83D0084F8EE
:101830003E000020CAE7000010B586B0044614211F
:1018400001A8FEF75BFE1F492068884238D100BF1F
:10185000002000901C48006840F010001A49086001
:101860000846006800F01000009000BF00BF00BFF5
:101870000020009014481438006840F0010012491C
:10188000143908600846006800F00100009000BFAD
:1018900000BF4FF4C060019002200290002003902E
:1018A000032004900720059001A90848FEF7ECFFEB
:1018B000002211462520FFF771F92520FFF75EF978
:1018C00006B010BD00100140443802400000024044
:1018D00070B504460D46164694F83E00202816D1F1
:1018E00005B10EB9012070BD00BF94F83C0001287D
:1018F00001D10220F7E7012084F83C0000BF00205E
:10190000206332462946204600F0BAFCEBE702206D
:10191000E9E7000070B505460848006838B1074897
:10192000006801220649836904480068984701223B
:1019300003490448FFF7CCFF044670BD14000020A3
:10194000100000208800002010B5034693F83D00E9
:10195000202823D101B10AB9012010BD00BF93F89E
:101960003C00012801D10220F7E7012083F83C0068
:1019700000BF19629A84DA8400201864212083F859
:101980003D0000BF002083F83C0000BF1868C0681D
:1019900040F080001C68E0600020DEE70220DCE709
:1019A0000121014A117070471100002000BFFEE7BD
:1019B00000B587B0142102A8FEF7A0FD00BF0020EB
:1019C00001901F48006840F004001D490860084667
:1019D000006800F00400019000BF00BF00BF0020BD
:1019E00001900846006840F08000086008460068E2
:1019F00000F08000019000BF00BF00BF00200190F8
:101A00000846006840F0010008600846006800F0E1
:101A10000100019000BF00BF0122D1030948FFF778
:101A20002DF84FF400400290012003900020049014
:101A3000059002A90348FEF727FF07B000BD00008C
:101A4000303802400000024010B50E480E490860D0
:101A50004FF48270486000210B488160C1600161D1
:101A600041614FF4007181610021C16101624162F5
:101A700081620A21C162FFF771FC08B1FEF797FE8F
:101A800010BD0000003001403000002010B50B48B0
:101A90000B4908604FF4E13048600021084881603C
:101AA000C16001610C21416100218161C161FFF7C9
:101AB00089FE08B1FEF77BFE10BD0000001001405A
:101AC0008800002000BFFEE700BFFEE7704710B5AA
:101AD000044614B96FF0150010BD206810B96FF0FE
:101AE0001500F9E721692068FEF7E6FC2068E06050
:101AF000A0600020606100BFEEE710B5044614B995
:101B00006FF0150010BD206810B96FF01500F9E7EF
:101B10002068FEF7DCFB2046FEF7D9FB00202061A1
:101B2000606160602060A060E06000BFEAE70000E4
:101B300070B505460DB9002070BD2C20FEF798FB4E
:101B400004460CB90020F7E7206810B12068FEF7C2
:101B5000BEFB2846FEF78CFB2060206828446060AE
:101B60002068A0602068E060256100206061054871
:101B7000A0610548E0610548206205486062204692
:101B8000DAE70000131C0008951B0008CF1A0008B4
:101B9000FB1A00082DE9F04104460E4615460027C1
:101BA000B8461CB96FF01500BDE8F081206810B987
:101BB0006FF01500F8E7606910B96FF00B00F3E7FC
:101BC0006069A84200D26569D4E9010129448842CC
:101BD00012D2D4E90101471AA5EB07083A4630466C
:101BE000A168FEF724FCF01942462168FEF71FFCAD
:101BF00020684044A06007E02A463046A168FEF70E
:101C000016FCA0682844A0606069401B60612846FB
:101C1000CAE72DE9F04704460F4615460026B046B0
:101C2000B1461CB96FF01500BDE8F0872069A842E5
:101C300002D26FF01500F7E7206810B96FF01500B9
:101C4000F2E7E16829446068884212D2E16860687E
:101C5000461AA5EB060832463946E068FEF7E7FB70
:101C6000B91942462068FEF7E2FB20684044E06074
:101C70000AE02E464FF0000832463946E068FEF78B
:101C8000D6FBE0683044E060D4E90401294488428E
:101C900004D2E068A0602069606102E060692844C5
:101CA00060612846C0E7704710B5FEF7F3FE10BD2F
:101CB00000B593B0302107A8FEF720FC142102A83C
:101CC000FEF71CFC00BF002001902448006840F093
:101CD0008050224908600846006800F0805001905A
:101CE00000BF00BF00BF002001901D48006840F405
:101CF00080401B4908600846006800F4804001905D
:101D000000BF00BF012007900004089002200D9042
:101D100041050E9104210F91A821109102211191EA
:101D20000421129107A8FFF7CBF808B1FEF73FFD99
:101D30000F20029002200390002004904FF4A05046
:101D400005904FF480500690052102A8FEF778FF19
:101D500008B1FEF72CFD13B000BD00004038024072
:101D6000007000400348006840F4700001490860BA
:101D70007047000088ED00E070B5044614B96FF0BC
:101D8000150070BD2079072826D2DFE800F0250471
:101D900020212223240012A12068FEF736FBA8B1DF
:101DA000FF20FFF7C5FE114908600846006810B91A
:101DB0006FF00400E5E701220D490E48FFF788FDAA
:101DC000054615B16FF00400DBE700BF05E004E055
:101DD00003E002E001E000E000BF00BF0020D0E728
:101DE00055415254204445425547000014000020FC
:101DF00010000020880000202DE9F04104460D4627
:101E000016461CB96FF01500BDE8F08115B96FF0EA
:101E10001500F9E72079072819D2DFE800F0180447
:101E20001314151617000C48006850B10A480068D2
:101E300032462946C369084800689847074638462D
:101E4000E2E705E004E003E002E001E000E000BFBB
:101E500000BF0020D8E70000140000202DE9F04169
:101E600004460E4617461CB96FF01500BDE8F08118
:101E700016B96FF01500F9E72079072817D2DFE8C7
:101E800000F016041112131415003A4631460A48A0
:101E9000FFF75AFD054615B16FF00400E6E700F0C4
:101EA0004DFA05E004E003E002E001E000E000BFDD
:101EB00000BF0020DAE700008800002070B505466A
:101EC000AC6B0020E085E0842046FFF70AFB70BD84
:101ED00000BF00BF02680C3252E8002F22F490715C
:101EE00002680C3242E80013002BF3D100BF00BFA0
:101EF00000BF0268143252E8002F22F0010102688C
:101F0000143242E80013002BF3D100BF016B01290A
:101F10000ED100BF00BF02680C3252E8002F22F041
:101F2000100102680C3242E80013002BF3D100BF0D
:101F3000202180F83E1000210163704710B504464F
:101F40002068C06820F040002168C860202084F824
:101F50003D002046FFF724FD002010BDF8B50446E3
:101F600094F83E00222873D1A068B0F5805F0CD1B0
:101F7000206950B90025A66A20684068C0F30800AF
:101F80003080A06A801CA06215E0A56A0026A068C7
:101F9000B0F5805F03D0A06828B9206918B920681F
:101FA0004068287004E02068406800F07F002870D6
:101FB000A06A401CA062E08D401E80B2E08500282F
:101FC00044D12068C06820F020002168C8602068E3
:101FD000C06820F480702168C8602068406920F0E3
:101FE000010021684861202084F83E00206B012810
:101FF00026D10020206300BF00BF21680C3151E8CA
:10200000001F21F0100021680C3141E80002002A75
:10201000F3D100BF2068006800F0100010280AD13A
:1020200000BF002000902068006800902068406891
:10203000009000BF00BFA18D2046FFF751FA02E0DB
:102040002046FFF767FC0020F8BD01E00020FBE719
:102050000220F9E72DE9F84F04462068006920F4D2
:102060004050E1680843216808612169A06808437D
:1020700061690843E169084300902068C06849F23B
:102080000C618843009908432168C8602068406952
:1020900020F44070A16908432168486176492068AE
:1020A000884203D075492068884203D1FEF7A0FE1C
:1020B000814602E0FEF78CFE8146E069B0F5004FF4
:1020C0006CD102206168A0FB015003461920A9FBD6
:1020D000007001462A463846FEF720F96421B0FB1D
:1020E000F1F04FEA001A02206168A0FB01510B4693
:1020F0001920A9FB00712A463846FEF70FF98346DE
:1021000002206168A0FB015003461920A9FB007161
:102110002A463846FEF702F96421B0FBF1F000EBE5
:10212000C00101EB0010ABEB8000322101EBC000DD
:102130006421B0FBF1F000F0F8000AEB400A022045
:102140006168A0FB015003461920A9FB00700146FD
:102150002A463846FEF7E2F8834602206168A0FB73
:10216000015003461920A9FB00712A463846FEF7A4
:10217000D5F86421B0FBF1F000EBC00101EB0010D9
:10218000ABEB8000322101EBC0006421B0FBF1F029
:1021900000F007005044216888606AE0042061680C
:1021A000A0FB015003461920A9FB007001462A46F6
:1021B0003846FEF7B3F8824604206168A0FB015060
:1021C00003461920A9FB007001462A463846FEF74F
:1021D000A5F86421B0FBF1F000EBC00101EB0010A9
:1021E000AAEB8000322101EB00106421B0FBF1F07A
:1021F00000F0F00A04206168A0FB0170034619207A
:10220000A9FB00513A462846FEF788F86421B0FB46
:10221000F1F00AEB001A04206168A0FB01510B46A3
:102220001920A9FB00712A463846FEF777F8834645
:1022300004206168A0FB015003461920A9FB00702F
:1022400001462A463846FEF769F86421B0FBF1F0F2
:1022500000EBC00101EB0010ABEB8000322101EB81
:1022600000106421B0FBF1F000F00F005044216831
:102270008860BDE8F88F00000010014000140140A4
:1022800010B5034699629A85DA85002018642220E9
:1022900083F83E0000BF002083F83C0000BF1869AF
:1022A00028B11868C06840F480701C68E060186845
:1022B000406940F001001C6860611868C06840F027
:1022C00020001C68E060002010BD014691F83D0030
:1022D000212828D18868B0F5805F0BD1086948B9FA
:1022E0000A6A1088C0F308000B685860086A801CEE
:1022F000086205E00B6A581C086218780B68586081
:10230000C88C401E80B2C88458B90868C06820F0E4
:1023100080000B68D8600868C06840F040000B6817
:10232000D860002070470220FCE7000010B502488A
:10233000FFF7D8F810BD00008800002000BF044857
:1023400000780128FBD10020014908707047000087
:102350001100002000BFFEE702480068C0F3022021
:10236000704700000CED00E010B5002804DB0A0700
:10237000130E054A135406E00A07140E034A00F030
:102380000F031B1FD45410BD00E400E018ED00E063
:10239000FEF78CFBFFF78CFCFFF70AFBFFF754FB03
:1023A000FFF774FB00BFFEE74FF04070E1EE100A4C
:1023B000704700000000000000000102030406074F
:1023C00008090000000001020304000055415254B6
:1023D0002044454255470000F82300080000002033
:1023E00030000000C401000828240008300000204C
:1023F00000070000E00100080000000010000000DD
:10240000010000000024F4000000000000000000B3
:10241000CC23000801000000791D00085D1E0008A3
:08242000F91D00080000000096
:040000050800018965
:00000001FF
